:020000040800F2
:10000000C011002039100008450E0008470E0008F6
:100010004B0E00084F0E0008530E000800000000B1
:10002000000000000000000000000000570E000863
:10003000590E0008000000004F100008750C000861
:100040005310000853100008531000085310000804
:1000500053100008531000085310000853100008F4
:1000600053100008531000085310000853100008E4
:1000700053100008531000085310000853100008D4
:1000800053100008531000085310000853100008C4
:1000900053100008531000085310000853100008B4
:1000A00053100008531000085310000853100008A4
:1000B0005310000853100008531000085310000894
:1000C0005310000853100008531000085310000884
:1000D000531000086109000853100008531000086D
:1000E000531000085310000853100008DFF80CD01C
:1000F00001F0CCFF0048004743010008C011002078
:10010000704710B504462146FF2000F054F810BD9A
:10011000704710B5FFF7FCFF0D480E49026B022037
:1001200090470B480C4902690020904708480A494B
:10013000091D0269012090470548C16907488847A1
:1001400010BD034908688047FFF7E3FF00BFFEE7E3
:1001500008000020010100084809002003010008F0
:1001600000BF0100A0F10100FBD1704700B50346BC
:1001700002E00820FFF7F4FF1800A3F10103F8D113
:1001800000BD00B5034603E04FF4FA50FFF7E8FF67
:100190001800A3F10103F7D100BD10B50446102CDF
:1001A00002DB0FA001F084FF102C02DA1148005D81
:1001B00010BD3020FCE713B504460F48006800B9B5
:1001C0001CBDF02C01D08DF8074015B90BA001F033
:1001D0006FFF00BFF4E710B500F02CF810BD000071
:1001E0000A4153534552543A20686578203C2031E7
:1001F000360A000000210008040000200A41535381
:100200004552543A20706F73744D6573736167651E
:100210000A00000010B5002807DA0A07140E184A71
:1002200000F00F031B1FD45403E00A07130E154AF6
:10023000135410BD10B51448806940F2FD110843F5
:100240001149886100F00AFC00F032F900F0CAF9A7
:1002500000F082FA00F0A3FA00F0EBFA00F0DDFC07
:100260004FF4A06001F0FEF8FE214FF0FF30FFF7E1
:10027000D1FFFF216FF00100FFF7CCFF10BD0000A0
:1002800018ED00E000E400E0001002400146F7290C
:100290001ED008DC7F2913D0BF290FD0DF290BD057
:1002A000EF2917D106E0FB2910D0FD290CD0FE293B
:1002B00010D107E0002070470120FCE70220FAE798
:1002C0000320F8E70420F6E70520F4E70620F2E72C
:1002D0000720F0E7FF20EEE70146F7291ED008DCF3
:1002E0007F2913D0BF290FD0DF290BD0EF2917D1D9
:1002F00006E0FB2910D0FD290CD0FE2910D107E023
:10030000302070473120FCE73220FAE73320F8E74D
:100310003420F6E73520F4E73620F2E73720F0E71F
:10032000FF20EEE710B5FF247C48006808B904F010
:100330007F047B48006808B904F0BF04794800686E
:1003400008B904F0DF047848006808B904F0EF0445
:100350000020764908604FF001007549C1F894010A
:10036000FFF704FF6D48006808B904F0F7046C4813
:10037000006808B904F0FB046A48006808B904F092
:10038000FD046948006808B904F0FE0400206949CA
:1003900008604FF001006649C1F89001204610BD89
:1003A00070B565480078012803D16448C168002011
:1003B000884761480078002804DD5F480078401EC7
:1003C0005D490870FFF7AEFF0446FF2C4CD15C4836
:1003D000007858B15A480078401E594908700020EA
:1003E00058490870FF205849087070BD5648007879
:1003F000FF2803D1002053490870F6E751480078E0
:10040000282813D150480078FFF766FF0546294693
:10041000FF20FFF7D0FE4948C1680120884714201B
:10042000454908700A204649087016E0454800789A
:10043000032812DD44480078FFF728FF05462946C7
:10044000FF20FFF7B8FE3D48C1680120884714200F
:10045000394908700A203A49087000203949087063
:10046000FF203949087021E036480078401C3549A2
:10047000087008460078012802D13348047015E05E
:100480003048007802280AD12F48007884420DD0E5
:10049000FF202D49087000202A49087006E02948ED
:1004A0000078282802DB28202649087000BF9CE736
:1004B00008B50121254801F072F93020ADF800009F
:1004C00014208DF8030002208DF8020069462048B0
:1004D00001F096F80820ADF8000048208DF80300E0
:1004E00002208DF802006946194801F089F84FF49E
:1004F000E050ADF8000002208DF8020048208DF891
:1005000003006946134801F07BF8002009490860A0
:100510004FF001000649C1F8900108BD0C8121424D
:10052000300122422C0122422801224290812142A4
:1005300000802142948121423F00002008000020D9
:100540003E0000203D0000203C0000200004300060
:10055000000C01400010014027480078401CC0B248
:100560002549087064283CD1002008702348007990
:100570003B2805DA21480079401C2049087130E009
:1005800072B61F480088401C1D49088000201B4986
:100590000871084640793B2806DA08464079401C35
:1005A000C1B21648417113E00021144841718079AD
:1005B000172806DA11488079401CC1B20F488171B2
:1005C00006E000210D4881718068401C0B4988605D
:1005D0000B480088401E0004000C0949088000D127
:1005E00062B6704700200549087100210348417137
:1005F00081718160704700004000002008000020E9
:100600000000002070B500245648006800B970BD95
:1006100072B655480088401C534908805148056807
:1006200027E015F0010F21D0504850F83400401E4B
:100630004E4941F8340019D14D480078204110F05E
:10064000010F07D0084600EBC4004168F020FFF717
:10065000B2FD04E0454901EBC40148688047012030
:10066000A0404049096881433E4801606D08601C14
:10067000C4B2002DD5D13C480088401E0004000CB7
:100680003949088000D162B600BFC0E730B50346E3
:100690000C4672B634480088401C334D2880002137
:1006A0002FE030480068C84010F0010F27D12F48D4
:1006B00040F8314000EBC10042603BB1012088406E
:1006C0002B4D2D7828432A4D287006E001208840C4
:1006D000274D2D7885432648057001208840214DFF
:1006E0002D6828431F4D28601F480088401E0004C5
:1006F000000C1D4D288000D162B6084630BD481C54
:10070000C1B20829CDDB18480088401E0004000C47
:10071000154D288000D162B6FF20EFE710B50446E2
:10072000082C02DB13A001F0C3FC72B60E4800884F
:10073000401C0D4908800120A0400A4909688143F6
:100740000848016008480088401E0004000C064963
:10075000088000D162B610BD0C490D4881620D4978
:10076000C162704744000020000000208009002082
:10077000480000200A4153534552543A20696420EE
:100780003C2054696D657253756D0A008D06000832
:10079000080000201D0700080B490860704708B5D5
:1007A0000220ADF8000010208DF8030002208DF823
:1007B00002006946054800F023FF00200249086056
:1007C00003490448C16008BD84012142000801407A
:1007D00099070008080000203A4A42F820107047A4
:1007E00010B500BF0221384801F02CFC0028F9D0D8
:1007F000354801F049FB3349344A127851F8221048
:10080000088032480078401CC0B230490870032884
:1008100001DD002008702D4800780A30C1B207239E
:100820000122294801F0C9FA0121274801F099FA6B
:1008300010BD00B587B001214FF4047001F096F9A6
:100840004FF4004001F0F9F80F20ADF81800002037
:100850008DF81B0006A91E4800F0D2FE1A4801F0D0
:10086000EDF9002001908DF808008DF809004FF493
:10087000602003900020049001208DF8140001A94D
:10088000114801F002FA01210F4801F02AFA0E483E
:1008900001F049FA00BF0C4801F04AFA0028FAD1E9
:1008A000094801F04FFA00BF074801F050FA00284C
:1008B000FAD10121044801F054FA064906480161C1
:1008C00007B000BD4C000020002401405C00002067
:1008D00000100140D90700080800002070470146B9
:1008E0008B48408AB0F57A7F01D10020704772B6FC
:1008F00088480088401C874A1080854880680170BD
:1009000083488068401C824A90601046408A401CA0
:100910005082104680685268904203D17C4800683B
:100920007B4A90607B480088401E0004000C794A96
:10093000108000D162B60120D8E770B504460D469C
:100940000A2C05D100BF0D20FFF7C9FF0028FAD0FF
:1009500000BFE0B2FFF7C3FF0028FAD0204670BD09
:1009600010B540F225516C4800F038FD38B16A48A6
:1009700000F0B4FCC4B2204668490968884710BD3D
:100980006348408A00B970476348008810F0400F00
:1009900000D1F8E75E48C06800785F49091D08800B
:1009A0005B48C068401C5A49C8600846408A401EDF
:1009B00048820846C0684968884203D154480068A4
:1009C0005349C86000BFDEE710B5012240F225514F
:1009D000514800F01EFC01214F4800F00EFC10BDF4
:1009E00010B5002240F225514B4800F012FC0021C6
:1009F000494800F002FC10BD48490860704770B5D6
:100A000004460D464DB103E014F8010BFFF767FFF4
:100A10002800A5F10105F7D10DE009E020780A28AA
:100A200002D10D20FFF75BFF14F8010BFFF757FF12
:100A300020780028F2D170BD39483549086000F5AA
:100A40007A70486008460068886008460068C86098
:100A50004FF47A70088200204882704700B587B052
:100A6000012144F2050001F081F84FF40070ADF867
:100A7000180003208DF81A0018208DF81B0006A915
:100A8000284800F0BDFD4FF48060ADF81800042048
:100A90008DF81B0006A9234800F0B2FD25208DF833
:100AA000040003208DF805008DF8060001208DF864
:100AB000070001A800F0DBFC4FF4E13002900020B9
:100AC000ADF80C00ADF80E00ADF81000ADF8140054
:100AD0000C20ADF8120002A90F4800F002FB012221
:100AE00040F225510C4800F094FB01210A4800F027
:100AF00084FBFFF7A1FF0C490C4841610C4981615F
:100B00000C49C1610C4901620C49416207B000BD4A
:100B1000A80D0020000000200038014060000020E7
:100B2000C009002000080140C90900080800002091
:100B3000E1090008F9090008DF080008FF090008BA
:100B4000704770B505460C4614B9A6A001F0B0FA7E
:100B500072B6AF480088401CAD490880BDB3012D76
:100B60001BD0022D4ED1AB480078082801D10020BF
:100B700070BDA84801780078401CA64A1070A648AD
:100B800040F82140A2480088401E0004000CA04903
:100B9000088000D162B60120EAE7A0480078042866
:100BA00001D10020E4E79D4801780078401C9B4A71
:100BB00010709B4840F8214095480088401E000472
:100BC000000C9349088000D162B60120D0E7FFE70E
:100BD00094480078022801D10020C9E791480178A3
:100BE0000078401C8F4A10708F4840F82140884898
:100BF0000088401E0004000C8549088000D162B6C0
:100C00000120B5E782480088401E0004000C80499E
:100C1000088000D162B60020AAE730B58349844835
:100C200001638448006842F21072B0FBF2F1B1F146
:100C3000807F00D31DE021F07F40401E4FF0E02276
:100C4000506150170F22002807DA13071D0E7A4B48
:100C500000F00F04241F1D5503E013071C0E774BF3
:100C60001C5400BF00204FF0E0229061072010616B
:100C700000BF30BD10B572480078401CC0B270494A
:100C80000870642801D1002008706749086880470F
:100C90006549486880476A480078642875D2DFE86B
:100CA00000F032753F794C7D598166853389408DDE
:100CB0004D915A9B679B349B419B4E9B5B9B689BD2
:100CC000359B429B4F9B5C9B699B369B439B509BF8
:100CD0005D9B6A9B379B449B519B5E9B6B9B389BA8
:100CE000459B529B5F9B6C9B399B469B539B609B98
:100CF0006D9B3A9B479B549B619B6E9B3B9B489B88
:100D0000559B62956F9800BF00BF00BF00BF00BF3A
:100D100000BF00BF00BF00BF4149086880475CE0DA
:100D200000BF00BF00BF00BF00BF00BF00BF00BFCB
:100D300000BF3B49486880474FE000BF00BF00BF8D
:100D400000BF00BF00BF00BF00BF00BF34498868BC
:100D5000804742E000BF00BF00BF00BF00BF00BF30
:100D600000BF00BF00BF2E49C868804735E000BF04
:100D700000BF00BF00BF00BF00BF00BF00BF00BF7B
:100D8000FFF7FEFDFFF73EFC27E025E0224908685B
:100D9000804722E02049486880471EE01E49886855
:100DA00080471AE01C49C868804716E01A4908695C
:100DB000804712E01849486980470EE01649886963
:100DC00080470AE01449C869804706E0FFF7C4FB82
:100DD00003E0FFF7E5FA00E000BF00BFFFF700FD0A
:100DE00010BD00000A4153534552543A20726567C2
:100DF000697374657246756E6374696F6E20213D08
:100E0000202866756E6374696F6E29300A000000D1
:100E1000000000209C0000207C0000209D0000209D
:100E20006C0000209E00002064000020430B00089E
:100E300008000020A000002018ED00E000E400E021
:100E40009F000020704700BFFEE700BFFEE700BF25
:100E5000FEE700BFFEE77047704700000CB50020BA
:100E6000019000906B48006840F480306949086048
:100E700000BF6848006800F4003000900198401CF2
:100E80000190009818B90198B0F5A06FF1D16148B0
:100E9000006810F4003F02D00120009001E0002023
:100EA00000900098012842D15B48006840F0100093
:100EB000594908600846006820F0030008600846A9
:100EC000006840F00200086052484068514948609C
:100ED0000846406848600846406840F480604860C2
:100EE0000846406820F47C1048600846406840F49A
:100EF000E81048600846006840F08070086000BF55
:100F00004448006810F0007FFAD04248406820F062
:100F10000300404948600846406840F002004860CD
:100F200000BF3C48406800F00C000828F9D10CBD17
:100F300010B5FFF793FF10BD10B53648006840F0BC
:100F40000100344908600846406834490840314986
:100F5000486008460068324908402E490860084643
:100F6000006820F4802008600846406820F4FE00F5
:100F700048604FF41F008860FFF7DAFF4FF0006011
:100F80002849086010BD10B5002100200022214B27
:100F90005B6803F00C0121B1042906D0082928D18F
:100FA00007E0214B214C236027E01F4B1F4C23609F
:100FB00023E0184B5B6803F47010164B5B6803F476
:100FC0008032022303EB904022B9194B4343174C64
:100FD00023600DE00F4B5B6813F4003F04D0144B0B
:100FE0004343124C236003E00F4B43430F4C2360F9
:100FF00003E00D4B0D4C236000BF00BF054B5B6849
:10100000C3F303130B4CE15C084B1B68CB40074C4C
:10101000236010BD00100240002002400000FFF8D5
:10102000FFFFF6FE08ED00E000127A00A0000020AD
:1010300000093D00A40000200648804706480047FC
:10104000FEE7FEE7FEE7FEE7FEE7FEE7FEE7FEE778
:10105000FEE7FEE7390F0008ED00000810B5044672
:10106000FB48844209D10121880300F099FD002149
:101070004FF4804000F094FD32E0F648844209D1FC
:101080000121480400F099FD00214FF4003000F0E8
:1010900094FD25E0F048844209D10121880400F044
:1010A0008CFD00214FF4802000F087FD18E0EB4814
:1010B000844209D10121C80400F07FFD00214FF4D2
:1010C000002000F07AFD0BE0E548844208D10121C0
:1010D000080500F072FD00214FF4801000F06DFD56
:1010E00010BD2DE9F04786B005460E460024A24605
:1010F00000BFA1460027B08900B100BF2F462C8A4F
:101100004CF6FF700440F08804432C82AC894EF604
:10111000F3100440B08831890843718908430443BF
:10112000AC81AC8A4FF6FF400440B0890443AC82E6
:1011300001A800F0AEFCC648874202D1DDF810A03D
:1011400001E0DDF80CA0A88910F4004F08D00AEBEC
:10115000CA0000EB0A1031684900B0FBF1F807E063
:101160000AEBCA0000EB0A1031688900B0FBF1F805
:101170006420B8FBF0F004012009642101FB108910
:10118000A88910F4004F08D0322000EBC900B0FB52
:10119000F1F000F00700044308E0322000EB0910F2
:1011A0006421B0FBF1F000F00F0004432C8106B085
:1011B000BDE8F0874FF41651016000218180C180A5
:1011C00001810C21418100218181704710B50246C7
:1011D0000020108A4FF2FF0318400B884C882343ED
:1011E0008C882343CC8823431843108210BD0021F0
:1011F000018041808180C180704721B1828942F4A1
:101200000052828104E082894DF6FF731A40828188
:101210007047F0B503460024002600250020A1F504
:1012200010676A3F00D100BF1846C1F3421401F0B5
:101230001F06012707FA06F5012C01D10C3004E046
:10124000022C01D1103000E014301AB107682F438E
:10125000076002E00768AF430760F0BD1AB1838AF8
:101260000B43838202E0838A8B4383827047028A26
:101270004FF6F0731A400282028A0A4302827047D4
:1012800082894FF2FF731A40828182890A438281E8
:10129000704721B1828942F00202828104E0828992
:1012A0004FF6FD731A4082817047028A4FF6DF7352
:1012B0001A400282028A0A430282704721B1028ADE
:1012C00042F48042028204E0028A4BF6FF731A4025
:1012D00002827047C1F30802828070470146888805
:1012E000C0F308007047818941F001018181704796
:1012F000028BD2B20283028B42EA01220283704740
:10130000028B02F47F420283028B0A4302837047FE
:1013100021B1828A42F02002828204E0828A4FF662
:10132000DF731A408282704721B1828A42F0100234
:10133000828204E0828A4FF6EF731A4082827047FD
:1013400021B1828A42F00802828204E0828A4FF64A
:10135000F7731A408282704721B1828942F40042B9
:10136000828103E08289C2F30E028281704721B13B
:10137000828A42F40062828204E0828A4FF2FF7322
:101380001A4082827047828A4FF6FB731A4082822B
:10139000828A0A438282704721B1828A42F0020225
:1013A000828204E0828A4FF6FD731A40828270477F
:1013B00002460020B1F5007F00D100BF13880B4228
:1013C00001D0012000E00020704701F40072B2F566
:1013D000007F00D100BFCA430280704770B502464B
:1013E0000024002300250020A1F510666A3E00D1EC
:1013F00000BFC1F3421501F01F03012606FA03F3F3
:10140000012D02D19689334006E0022D02D1168AC1
:10141000334001E0968A33400C12012606FA04F4A8
:101420001688344013B10CB1012000E0002070BDDB
:1014300010B500220023A1F510646A3C00D100BF62
:101440000A1201249440A3B2DC43048010BD0000C2
:10145000003801400044004000480040004C00407B
:101460000050004031490143314A1160704770B566
:10147000002100230F22C4780CB32D4C246804F4FF
:10148000E064C4F5E064210AC1F10403CA40447871
:1014900004FA03F18478144021430901254C0678AD
:1014A000A155047804F01F050124AC4005786D11A6
:1014B0004FF0E02606EB8505C5F8004109E0047809
:1014C00004F01F050124AC401B4D0678761145F849
:1014D000264070BD194A0A400243154B1B1F1A6073
:1014E000704739B1124A121D12680243104B1B1D7E
:1014F0001A6006E00E4A121D126882430C4B1B1D37
:101500001A607047042808D14FF0E021096941F0C2
:1015100004014FF0E022116107E04FF0E02109697A
:1015200021F004014FF0E022116170470000FA053C
:101530000CED00E000E400E080E100E080FFFF1F30
:1015400010B50446CA48844208D10121042000F0A5
:1015500027FB0021042000F023FB46E0C54884421D
:1015600008D10121082000F01BFB0021082000F019
:1015700017FB3AE0C048844208D10121102000F056
:101580000FFB0021102000F00BFB2EE0BB48844233
:1015900008D10121202000F003FB0021202000F0D1
:1015A000FFFA22E0B648844208D10121402000F031
:1015B000F7FA0021402000F0F3FA16E0B148844227
:1015C00008D10121802000F0EBFA0021802000F0FA
:1015D000E7FA0AE0AC48844207D10121801500F007
:1015E000DFFA0021A01500F0DBFA10BD10B50121D3
:1015F000084600F0D5FA0021012000F0D1FA10BD14
:101600002DE9F04102460025002600200023002499
:10161000002791F803C00CF00F0591F803C01CF0EF
:10162000100F03D091F802C04CEA050591F800C0F4
:10163000BCF1000F31D0146800202BE04FF0010CFA
:101640000CFA00F3B1F800C00CEA03069E4220D168
:1016500083004FF00F0C0CFA03F7BC4305FA03FCB0
:101660004CEA040491F803C0BCF1280F06D14FF0F6
:10167000010C0CFA00FCC2F814C00AE091F803C097
:10168000BCF1480F05D14FF0010C0CFA00FCC2F878
:1016900010C0401C0828D1D31460B1F800C0BCF1C0
:1016A000FF0F34DD546800202EE000F1080C4FF0ED
:1016B000010808FA0CF3B1F800C00CEA03069E42D8
:1016C00021D183004FF00F0C0CFA03F7BC4305FA4D
:1016D00003FC4CEA040491F803C0BCF1280F05D1C7
:1016E00000F1080C08FA0CF8C2F8148091F803C055
:1016F000BCF1480F07D100F1080C4FF0010808FABF
:101700000CF8C2F81080401C0828CED35460BDE805
:10171000F0814FF6FF710180022181700421C170B8
:1017200070470246002093680B4201D0012000E080
:10173000002070470146886880B27047024600204A
:10174000D3680B4201D0012000E000207047014621
:10175000C86880B2704701617047416170470AB143
:10176000016100E041617047C16070474FF4803211
:101770000A4382618161826182698269704702469F
:101780000020424B18684FF68073184040EA021060
:1017900008433E4B186070473D49C8617047F0B53B
:1017A0000A46002300240021002500F00046B6F17F
:1017B000004F02D1354EF16901E0344E7168C0F33B
:1017C000034583B200F44016B6F5401F08D121F05E
:1017D00070612E4E766826F070662C4F7E6012E0A7
:1017E00000F48016B6F5801F06D1032606FA05F42C
:1017F000A14341F0706106E0460D360103FA06F69A
:10180000B14341F0706122B1460D360103FA06F68C
:10181000314300F00046B6F1004F02D11B4EF1619A
:1018200001E01A4E7160F0BD30B500228B071C0F2D
:101830000F2303FA04F2154B08338C1053F82430AD
:101840009343124C08348D1044F8253023468C10F5
:1018500053F824308C07240F00FA04F423430B4C74
:1018600008348D1044F8253030BD0A4908607047AF
:1018700000080140000C014000100140001401402C
:1018800000180140001C0140002001400000014000
:1018900000002042DC002042DD48006840F00100EA
:1018A000DB49086008464068DA490840D849486082
:1018B00008460068D8490840D549086008460068CD
:1018C00020F4802008600846406820F4FE0048604C
:1018D0004FF41F0088607047CD49096821F48031BA
:1018E000CB4A11601146096821F480211160B0F5DE
:1018F000803F03D0B0F5802F0ED106E0C4490968BF
:1019000041F48031C24A116007E0C149096841F4DD
:10191000A021BF4A116000E000BF00BF704710B5B2
:1019200001460022002300204A11012A02D1B84CAE
:10193000236806E0022A02D1B54C236A01E0B44CC8
:10194000636A01F01F02012494401C4201D001206F
:1019500000E0002010BD38B50020009000240025D4
:1019600000BF3120FFF7DBFF05460098401C0090C8
:101970000098B0F5A06F01D0002DF2D03120FFF714
:10198000CEFF08B1012400E00024204638BD014606
:1019900000209F4A106820F0F80040EAC100106063
:1019A00070479E490860704702460020984B58686F
:1019B00020F47C1042EA01031843954B58607047AD
:1019C00096490866704701460020914A506820F009
:1019D00003000843506070478D48406800F00C00D9
:1019E0007047014600208A4A506820F0F000084302
:1019F0005060704701460020854A506820F4E0603E
:101A000008435060704701460020814A506820F426
:101A1000605040EAC1005060704729B17C4A527A58
:101A200002437B4B5A7204E0794A527A8243784BE4
:101A30005A7270477A490860704701460020744A1C
:101A4000506820F440400843506070470021754AB8
:101A500011706F4A82F82010012802D0042808D1A2
:101A600003E001216F4A117004E005216D4A1170F5
:101A700000E000BF00BF70476B49086070476449D1
:101A8000096A0143624A1162704767494439086034
:101A9000704730B500210022002400235C4D6D68A2
:101AA00005F00C0121B1042905D0082923D105E056
:101AB0005E4D056022E05D4D05601FE0544D6D6890
:101AC00005F47012524D6D6805F48034022505EB63
:101AD00092421CB9564D554305600BE04C4D6D6864
:101AE00015F4003F03D0524D5543056002E04F4DC1
:101AF0005543056002E04D4D056000BF00BF444DF9
:101B00006D6805F0F00109094A4D6B5C0568DD4020
:101B100045603F4D6D6805F4E061090A454D6B5C19
:101B20004568DD4085603A4D6D6805F46051C90A2D
:101B3000404D6B5C4568DD40C560354D6D6805F412
:101B40004041890B3C4D6B5CC568B5FBF3F5056105
:101B500030BD29B12E4A526902432D4B5A6104E02F
:101B60002B4A526982432A4B5A61704729B1284A4D
:101B700092690243264B9A6104E0254A92698243A6
:101B8000234B9A61704729B1214AD2690243204B05
:101B9000DA6104E01E4AD26982431D4BDA61704764
:101BA00029B11B4AD2680243194BDA6004E0184A93
:101BB000D2688243164BDA60704729B1144A126921
:101BC0000243134B1A6104E0114A12698243104B1D
:101BD0001A61704714494039086070470F49C8645A
:101BE00070470B49C87170470948406A40F08070DF
:101BF00007494862704701460020054A92680A4238
:101C000001D0012000E00020704701498872704730
:101C1000001002400000FFF8FFFFF6FE0000424205
:101C2000D8004242201002408004424200127A0052
:101C300000093D00B4000020C400002010B5044697
:101C4000FA48844208D101214015FFF7A9FF00217D
:101C50006015FFF7A5FF17E0F548844208D1012180
:101C60000015FFF79DFF00212015FFF799FF0BE0FE
:101C7000F048844208D10121C803FFF791FF0021F9
:101C80004FF40040FFF78CFF10BD30B50246002036
:101C900000235068E84C20400D790C6844EA052484
:101CA000204350609068E54C2040D1E902542C4319
:101CB0004D7944EA450420439060D06A20F47000D6
:101CC0000C7C641EE4B2234340EA0350D06230BD72
:101CD00000210160017141718160C16001210174C5
:101CE000704721B1826842F00102826003E082689D
:101CF00022F001028260704721B1826842F4807252
:101D0000826003E0826822F480728260704710B5BE
:101D10000023CBB21AB144681C43446002E044681B
:101D20009C43446010BD816841F0080181607047A8
:101D3000014600208A6812F0080F01D0012000E05F
:101D400000207047816841F00401816070470146BE
:101D500000208A6812F0040F01D0012000E000206A
:101D6000704721B1826842F4A002826003E0826879
:101D700022F4A00282607047014600208A6812F4B3
:101D8000800F01D0012000E00020704710B50A4606
:101D900000210023416821F46041531E41EA433190
:101DA000416010BD21B1426842F40062426003E02C
:101DB000426822F4006242607047F0B504460D4666
:101DC00000200021092D11DDE068A5F10A0606EBCF
:101DD0004607072606FA07F18843A5F10A0606EB2F
:101DE000460603FA06F10843E0600CE0206905EBC3
:101DF0004507072606FA07F1884305EB450603FA6F
:101E000006F108432061072A0FDA606B561E06EBC5
:101E100086071F2606FA07F18843561E06EB86063C
:101E200005FA06F10843606322E00D2A0FDA206B01
:101E3000D61F06EB86071F2606FA07F18843D61F32
:101E400006EB860605FA06F10843206310E0E06A17
:101E5000A2F10D0606EB86071F2606FA07F1884356
:101E6000A2F10D0606EB860605FA06F10843E062CC
:101E7000F0BD21B1826842F48012826003E0826882
:101E800022F48012826070470146C86C80B27047AD
:101E900066484C300068704721B1426842F4806265
:101EA000426003E0426822F480624260704721B1E0
:101EB000426842F48052426003E0426822F4805259
:101EC000426070470A460021816821F4E0411143D5
:101ED0008160704721B1826842F40042826003E071
:101EE000826822F400428260704721B1826842F425
:101EF0000212826003E0826822F40212826070475C
:101F0000014600208A6812F4001F01D0012000E081
:101F100000207047F0B50446154600200022002638
:101F2000092911DDE068A1F10A0707EB470C072733
:101F300007FA0CF29043A1F10A0707EB470703FAEF
:101F400007F21043E0600CE0206901EB410C072729
:101F500007FA0CF2904301EB410703FA07F2104332
:101F60002061A06BC0F30156EF1C06F1010CA7EB3A
:101F70000C0707EB870C1F2707FA0CF29043EF1CA6
:101F800006F1010CA7EB0C0707EB870701FA07F234
:101F90001043A063F0BD10B50A4600210023816BF9
:101FA00021F44011531E41EA0351816310BD08B56D
:101FB000002300930090009B0B440093009B1A6049
:101FC00008BD08B5024600200090009201F12800EB
:101FD000009B184400900098006880B208BD0A4633
:101FE00000214168164B194011434160704741621E
:101FF000826270470A460021416821F01F011143A7
:102000004160704740B109490831096841F4000155
:10201000064A0832116007E004490831096821F4D2
:102020000001024A0832116070470000002401409C
:1020300000280140003C0140FFFEF0FFFDF7F1FFEA
:10204000FFFD3FFF0246002013680B4201D0012034
:1020500000E000207047CA430260704770B5024636
:102060000020002300240B125568CEB205EA0604B6
:1020700015681D4202D00CB1012000E0002070BDA7
:1020800000220A12D343036070470000064C074D3C
:1020900006E0E06840F0010394E807009847103438
:1020A000AC42F6D3FEF726F81021000830210008D4
:1020B000014A024900F013B83B090008C80000209B
:1020C00002E008C8121F08C1002AFAD17047704701
:1020D000002001E001C1121F002AFBD170472DE949
:1020E000F04116460F460446002503E03946B04746
:1020F0006D1C641C20780028F8D12846BDE8F081CA
:10210000303132333435363738394142434445462D
:102110003021000800000020CC000000C020000892
:10212000FC210008CC000020F4100000D0200008A2
:102130000000000000000000D701000800000000BF
:10214000000000000000000000000000000000008F
:10215000000000000000000000000000000000007F
:10216000000000000000000000000000FF00000070
:102170000000000000000000000000005E000020E1
:102180005E0000205E0000205E00002000000000D5
:10219000DD080008410B0008410B0008410B000856
:1021A000410B0008410B0008410B0008410B0008DF
:1021B000410B0008410B0008410B0008410B0008CF
:1021C000410B0008410B0008410B00080000000013
:1021D00000A24A0400000000000000000102030405
:1021E00006070809000000000102030401020304BD
:0C21F000060708090204060800000000B1
:04000005080000ED02
:00000001FF
