:020000040800F2
:10000000481C0020FD1C0008091B00080B1B0008F1
:100010000F1B0008131B0008171B0008000000003E
:100020000000000000000000000000001B1B000892
:100030001D1B000800000000131D00083D190008EA
:10004000171D0008171D0008171D0008171D0008C0
:10005000171D0008171D0008171D0008171D0008B0
:10006000171D0008171D0008171D0008171D0008A0
:10007000171D0008171D0008171D0008171D000890
:10008000171D0008171D0008171D0008171D000880
:10009000171D0008171D0008171D0008171D000870
:1000A000171D0008171D0008171D0008171D000860
:1000B000171D0008171D0008171D0008171D000850
:1000C000171D0008171D0008171D0008171D000840
:1000D000171D00084912000869120008891200085B
:1000E000171D0008171D0008171D0008DFF80CD0A9
:1000F00003F0E4FD0048004755020008481C0020BA
:1001000010B500F0FAF8012831D1604800780328D2
:100110000CD10121112000F01AFC0021122000F066
:1001200016FC0021142000F012FC20E05748007853
:1001300004280CD10021112000F009FC012112201B
:1001400000F005FC0021142000F001FC0FE04F48F6
:10015000007805280BD10021112000F0F8FB0021C8
:10016000122000F0F4FB0121142000F0F0FB10BD80
:1001700010B504462146FF2000F059FC10BD10B513
:100180000446204600F08CF810BD002040498864E9
:10019000704710B5FFF7F9FF3E483F49426E012016
:1001A00090473C483A494831026A00209047394814
:1001B000016D3A48884710BD70B50024002509E05C
:1001C0003348B0F8480080B20444012000F015FC28
:1001D000681C85B2202DF3DBC4F34F1070BD2DE9F0
:1001E000F04190B0002700250AE02948B0F8480007
:1001F00080B22DF81500012000F0FFFB681C85B2CD
:10020000202DF2DB002415E026460FE03DF8140017
:100210003DF81610884207DD3DF814803DF81600C1
:100220002DF814002DF81680701C86B2202EEDDB00
:10023000601C84B2202CE7DB082504E03DF81500A3
:100240000744681C85B2182DF8DBC7F30F1010B0F7
:10025000BDE8F0810F4908688047FFF79AFF10203A
:1002600000F03EFA11E0FFF7BAFF0949A1F84C008F
:100270000849886D80470649A1F844000A46B2F84B
:100280004C10B2F8440000F0C8F9ECE7E409002093
:10029000940900201C000020010100087F010008D3
:1002A000FD490978491CFC4A117011460978FB493F
:1002B0000978FB491278885470470146F64800785F
:1002C000F64A1278904201D100207047F348007836
:1002D000401CF24A1070F2481278805C08700120CD
:1002E000F3E710B50446EF48416D2046884710BD3E
:1002F000E9480078E9490870704710B5002462E1C8
:10030000E9480068A0F58071013909D1E748E8495A
:100310000968405C5A2803D1E5480068E249086052
:10032000E1480068E2490968884218D0DE48006860
:10033000A0F58071013912D0DE48007878B9DA482A
:100340000078401CC0B2D949085C552803D101206F
:10035000D849087003E040F20110D3490860D5483D
:10036000007800287CD0D148D1490968405C6928D0
:1003700077D1CF480078401EC0B2CC49085C6A28CB
:10038000F6D10020CB490870C9480068C649096801
:1003900088421AD9C6480068C34B1B68C01AC21EDF
:1003A000C248C14B1B681844811CC34803F074FC4D
:1003B000BF480078BC490978401AC01EBF49087080
:1003C00040F20110B84908605DE0B9480068B649DC
:1003D0000968884257D2B4480068FE282BD2B24838
:1003E0000068C0F1FE02B0480078801CC0B2AF4B7C
:1003F000C118B14803F050FCAD48006801280BD982
:10040000AB4909684A1EAC49FF31A74B1B68C91AA2
:10041000481EA64903F040FCA3480068C0F1FF0055
:10042000A34909780844801EA449087040F20110CD
:100430009D49086027E09C480068FE2812D19C482E
:100440000068421E99499C4803F026FC98480078B1
:10045000401E9A49087040F201109349086012E06A
:100460004DE012E092480068821E9049491C924873
:1004700003F012FC8E480078801E9049087040F20C
:10048000011089490860012010BD8948007886491B
:100490000978401AC0B2202831D900208549087057
:1004A0008348006880490968884229D97E480068E5
:1004B000441C20E07D48005D5A2813D17A4804602E
:1004C0007B480068844215D07849601C085C552838
:1004D00003D101207749087011E040F20110724900
:1004E000086007E072480068844203D140F20110BE
:1004F0006D490860641C6E4800688442DAD95AE08D
:100500006B48006868490968884254D266480068A8
:10051000441C28E06548005D5A281ED162480460EA
:10052000FF2C0DD06149601C085C552803D10120C7
:100530006049087019E040F201105B49086011E061
:100540005A480078552803D101205A4908700CE018
:1005500040F201105449086004E0FF2C02D1A01CB5
:1005600051490860641CFF2CD4DD00BF4E48006870
:10057000A0F5807101391ED1002417E04B48005DC1
:100580005A2812D1484804604948006884420CD077
:100590004649601C085C552803D101204549087074
:1005A00008E040F2011040490860641C40480068BF
:1005B0008442E3D900BF3E480068401C3C490860C3
:1005C0000846007808603949394A12688818FFF7E8
:1005D00074FE00287FF494AE00BF55E770B5044662
:1005E00000255A2C03D06A2C01D0992C0ED105F18C
:1005F0009900C5B2C4F1FF002844C5B29920FFF7A5
:1006000070FEC4F1FF00FFF76CFE04E02046FFF728
:1006100068FE2819C5B2284670BD70B506460D465D
:1006200000245A20FFF75DFE5520FFF75AFE0120F7
:10063000FFF7D4FF2044C4B20620FFF7CFFF2044C9
:10064000C4B2F0B2FFF7CAFF2044C4B23012FFF7C1
:10065000C5FF2044C4B2E8B2FFF7C0FF2044C4B2D3
:10066000C5F30720FFF7BAFF2044C4B2C5F3074023
:10067000FFF7B4FF2044C4B2280EFFF7AFFF2044B9
:10068000C4B22046FFF72DFE6A20FFF72AFE69203C
:10069000FFF727FE70BD00000400002005000020C9
:1006A000040A00201C0000200C000020040B002085
:1006B0000800002010000020E409002000000020B5
:1006C00070B504460D46C248294642692046904707
:1006D00070BD10B50446BE4881692046884710BDEC
:1006E00010B50446112C70D2DFE804F0091A2B3C37
:1006F0004D5E708192A3B4C5D6E7FBF9F8000021E6
:100700000846FFF7DDFF00210120FFF7D9FF002198
:100710000220FFF7D5FF00210320FFF7D1FF14E1EE
:1007200001210020FFF7CCFF00210120FFF7C8FFC7
:1007300000210220FFF7C4FF00210320FFF7C0FFC4
:1007400003E100210846FFF7BBFF01210846FFF740
:10075000B7FF00210220FFF7B3FF00210320FFF7BE
:10076000AFFFF2E001210020FFF7AAFF01210846B8
:10077000FFF7A6FF00210220FFF7A2FF00210320C0
:10078000FFF79EFFE1E000210846FFF799FF0021F7
:100790000120FFF795FF01210220FFF791FF0021C3
:1007A0000320FFF78DFFD0E001210020FFF788FF35
:1007B00000210120FFF784FF01210220FFF780FFC5
:1007C00000210320FFF77CFFBFE0BDE000210846C9
:1007D000FFF776FF01210846FFF772FF0121022093
:1007E000FFF76EFF00210320FFF76AFFADE0012154
:1007F0000020FFF765FF01210846FFF761FF012197
:100800000220FFF75DFF00210320FFF759FF9CE066
:1008100000210846FFF754FF00210120FFF750FF99
:1008200000210220FFF74CFF01210320FFF748FFC2
:100830008BE001210020FFF743FF00210120FFF79B
:100840003FFF00210220FFF73BFF01210320FFF7BC
:1008500037FF7AE000210846FFF732FF0121084602
:10086000FFF72EFF00210220FFF72AFF01210320BE
:10087000FFF726FF69E001210020FFF721FF01219A
:100880000846FFF71DFF00210220FFF719FF012195
:100890000320FFF715FF58E000210846FFF710FF7F
:1008A00000210120FFF70CFF01210220FFF708FFC4
:1008B00001210320FFF704FF47E001210020FFF79B
:1008C000FFFE00210120FFF7FBFE01210220FFF7C0
:1008D000F7FE01210320FFF7F3FE36E023E011E0ED
:1008E000FFE700210846FFF7EBFE01210846FFF76E
:1008F000E7FE01210220FFF7E3FE01210320FFF7BD
:10090000DFFE22E001210020FFF7DAFE0121084688
:10091000FFF7D6FE01210220FFF7D2FE01210320BE
:10092000FFF7CEFE11E001210020FFF7C9FE0121F3
:100930000846FFF7C5FE01210220FFF7C1FE012195
:100940000320FFF7BDFE00E000BF00BF10BD70B583
:1009500004460D46A4F11100062822D2DFE800F07B
:1009600003080D12171C29460420FFF7A9FE19E001
:1009700029460520FFF7A4FE14E029460620FFF7CC
:100980009FFE0FE029460720FFF79AFE0AE029465E
:100990000820FFF795FE05E029460920FFF790FEA5
:1009A00000E000BF00BF70BD70B50949C86980474D
:1009B00004460A2000F021F80549C8698047054629
:1009C000AC4202D10348A0F84440002070BD0000B2
:1009D0001C0000209409002000BF0100A0F10100CC
:1009E000FBD1704700B5034602E00820FFF7F4FF93
:1009F0001800A3F10103F8D100BD00B5034603E0E0
:100A00004FF4FA50FFF7E8FF1800A3F10103F7D104
:100A100000BD10B50446102C02DB0FA003F060F9F6
:100A2000102C02DA1148005D10BD3020FCE713B530
:100A300004460F48006800B91CBDF02C01D08DF8A9
:100A4000074015B90BA003F04BF900BFF4E710B550
:100A500000F02CF810BD00000A4153534552543A9F
:100A600020686578203C2031360A0000303D0008BF
:100A7000180000200A4153534552543A20706F73B6
:100A8000744D6573736167650A00000010B5002836
:100A900007DA0A07140E174A00F00F031B1FD4547D
:100AA00003E00A07130E144A135410BD10B513487F
:100AB000806940F01D001149886100F024FE00F0BB
:100AC00065F800F033FA00F01BF900F025FB03F0A5
:100AD00075F800F006FF4FF4A06001F025FBFE2141
:100AE0004FF0FF30FFF7D2FFFF216FF00100FFF75B
:100AF000CDFF10BD18ED00E000E400E00010024062
:100B000027480078401CC0B22549087064283CD1B1
:100B100000200870234800793B2805DA2148007935
:100B2000401C2049087130E072B61F480088401C04
:100B30001D49088000201B490871084640793B2860
:100B400006DA08464079401CC1B21648417113E0EC
:100B50000021144841718079172806DA11488079FC
:100B6000401CC1B20F48817106E000210D4881711F
:100B70008068401C0B4988600B480088401E0004B8
:100B8000000C0949088000D162B670470020054971
:100B90000871002103484171817181607047000034
:100BA000840000201C0000201400002070B50024E8
:100BB0005648006800B970BD72B655480088401CA0
:100BC000534908805148056827E015F0010F21D0EE
:100BD000504850F83400401E4E4941F8340019D1B5
:100BE0004D480078204110F0010F07D0084600EB77
:100BF000C4004168F020FFF71AFF04E0454901EB0B
:100C0000C401486880470120A040404909688143E9
:100C10003E4801606D08601CC4B2002DD5D13C482F
:100C20000088401E0004000C3949088000D162B6DB
:100C300000BFC0E730B503460C4672B634480088A2
:100C4000401C334D288000212FE030480068C84008
:100C500010F0010F27D12F4840F8314000EBC100C0
:100C600042603BB1012088402B4D2D7828432A4D0E
:100C7000287006E001208840274D2D7885432648BE
:100C8000057001208840214D2D6828431F4D2860A4
:100C90001F480088401E0004000C1D4D288000D114
:100CA00062B6084630BD481CC1B20829CDDB1848E1
:100CB0000088401E0004000C154D288000D162B64B
:100CC000FF20EFE710B50446082C02DB13A003F069
:100CD00007F872B60E480088401C0D4908800120B4
:100CE000A0400A4909688143084801600848008813
:100CF000401E0004000C0649088000D162B610BDF9
:100D00000C490D48C1650D490166704788000020F7
:100D100014000020040C00208C0000200A415353D2
:100D20004552543A206964203C2054696D657253E1
:100D3000756D0A00350C00081C000020C50C000869
:100D4000BE4908607047421EBD4B03EB8202C2F8E9
:100D500080117047052806DAC21CBA4B03EB8202E9
:100D6000C2F8801104E0B64A02EB8002C2F880119A
:100D700070470146062903DAB3480068C0B27047DD
:100D800000BFFCE70A2824D2DFE800F005080B0EBC
:100D90001114171A1D20AD4A11601BE0AC4A1160F6
:100DA00018E0AC4A116015E0AB4A116012E0AB4AA2
:100DB00011600FE0AA4A11600CE0AA4A116009E034
:100DC000A94A116006E0A94A116003E0A84A11602F
:100DD00000E000BF00BF704701460020A1F10A02F9
:100DE000102A49D2DFE802F0080C1014181C202445
:100DF000282C3034383C40449E4A1268D0B23CE043
:100E00009D4A1268D0B238E09C4A1268D0B234E0F1
:100E10009B4A1268D0B230E09A4A1268D0B22CE0F5
:100E2000994A1268D0B228E0984A1268D0B224E0F9
:100E3000974A1268D0B220E0964A1268D0B21CE0FD
:100E4000954A1268D0B218E0944A1268D0B214E001
:100E5000934A1268D0B210E0924A1268D0B20CE005
:100E6000914A1268D0B208E0904A1268D0B204E009
:100E70008F4A1268D0B200E000BF00BF7047002068
:100E80007C49096809B940F001007B49096809B942
:100E900040F002007949096809B940F00400784936
:100EA000096809B940F008007649096809B940F0B5
:100EB00010007549096809B940F0200073490968B4
:100EC00009B940F040007249096809B940F0800052
:100ED0007049096809B940F480706F49096809B917
:100EE00040F400706D49096809B940F480606C49AC
:100EF000096809B940F400606A49096809B940F411
:100F000080506949096809B940F400506749096887
:100F100009B940F480406649096809B940F40040C5
:100F2000704710B5FFF7ABFF044610BD08B50121AF
:100F3000102001F07DFC0F20ADF8000010208DF88E
:100F4000030001208DF8020069465A4801F0BAF901
:100F500001203E4908603A49C1F884013D490860D2
:100F60003749C1F88C0101464FF0040001F060FCE4
:100F70000121102001F05CFCF020ADF800001020F1
:100F80008DF8030001208DF8020069464A4801F0FF
:100F900099F93020ADF800006946464801F092F911
:100FA00000202E4908602E4908602E4908602E490D
:100FB00008602E4908602249C1F894014FF4787006
:100FC000ADF800004FF048008DF803004FF001002D
:100FD0008DF802006946394801F074F94FF48050E9
:100FE000ADF800006946334801F06CF94FF47C60BD
:100FF000ADF8000048208DF8030001208DF80200B4
:1010000069462C4801F05EF94FF47040ADF80000DD
:1010100048208DF8030001208DF80200694627481A
:1010200001F050F926492748C16027490161274945
:101030004161274981612749C16108BD840121427D
:10104000000022420000214204812142800122420C
:1010500084012242880122428C01224290012142D5
:1010600094012142980121429C0121429001224297
:101070009401224224812142208121421C8121426B
:101080001881214214812142300122422C01224246
:101090002801224224012242200122421C01224234
:1010A000180122423C81214238812142348121426F
:1010B000308121420010014000080140000C014035
:1010C000470D00081C000020550D0008850D000884
:1010D000D90D00087F0E0008344A42F820107047EE
:1010E00010B500BF0221324801F00EFE0028F9D0F1
:1010F0002F4801F02BFD2D492E4A127851F822106D
:101100000880072301220021294801F0B8FC0121B1
:10111000274801F088FC10BD00B587B001214FF4CD
:10112000017001F085FB4FF4004001F0E8FA012066
:10113000ADF8180000208DF81B0006A91E4801F02C
:10114000C1F81B4801F0DCFB002001908DF808007D
:101150008DF809004FF460200390002004900120D6
:101160008DF8140001A9124801F0F1FB012110488B
:1011700001F019FC0E4801F038FC00BF0C4801F0EA
:1011800039FC0028FAD10A4801F03EFC00BF0848AB
:1011900001F03FFC0028FAD10121054801F043FC91
:1011A00006490748016207B000BD0000900000201A
:1011B00000240140A000002000080140D9100008D0
:1011C0001C00002070470146FE48408AB0F57A7F37
:1011D00001D10020704772B6FB480088401CFA4AD3
:1011E0001080F84880680170F6488068401CF54A15
:1011F00090601046408A401C5082104680685268B9
:10120000904203D1EF480068EE4A9060EE480088B3
:10121000401E0004000CEC4A108000D162B6012090
:10122000D8E770B504460D460A2C05D100BF0D2045
:10123000FFF7C9FF0028FAD000BFE0B2FFF7C3FFF5
:101240000028FAD0204670BD10B540F22551DF4885
:1012500000F026FF38B1DD4800F0A2FEC4B22046FF
:10126000DB490968884710BD10B540F22551D948BF
:1012700000F016FF38B1D74800F092FEC4B2204605
:10128000D5490968884710BD10B540F22551D348AB
:1012900000F006FF38B1D14800F082FEC4B220460B
:1012A000CF490968884710BDC648408A00B97047D1
:1012B000C648008810F0400F00D1F8E7C148C06868
:1012C0000078C249091D0880BE48C068401CBD495D
:1012D000C8600846408A401E48820846C06849687F
:1012E000884203D1B7480068B649C86000BFDEE74E
:1012F000BC48408A00B97047B648008810F0400FDB
:1013000000D1F8E7B748C0680078B249091D0880E5
:10131000B448C068401CB349C8600846408A401EB3
:1013200048820846C0684968884203D1AD480068D1
:10133000AC49C86000BFDEE7AB48408A00B97047DF
:10134000A648008810F0400F00D1F8E7A648C06812
:101350000078A249091D0880A348C068401CA24922
:10136000C8600846408A401E48820846C0684968EE
:10137000884203D19C4800689B49C86000BFDEE7F3
:1013800010B5012240F22551904800F0A4FD012142
:101390008E4800F094FD10BD10B5012240F2255199
:1013A0008C4800F098FD01218A4800F088FD10BDAE
:1013B00010B5012240F22551884800F08CFD012132
:1013C000864800F07CFD10BD10B5002240F225518A
:1013D0007E4800F080FD00217C4800F070FD10BDCB
:1013E00010B5002240F225517A4800F074FD00212A
:1013F000784800F064FD10BD10B5002240F2255180
:10140000764800F068FD0021744800F058FD10BDDA
:101410006F490860704770490860704770490860FC
:10142000704701466F48408AB0F57A7F01D10020AD
:10143000704772B664480088401C634A108069484F
:101440008068017067488068401C664A906010465A
:10145000408A401C5082104680685268904203D1F6
:10146000604800685F4A906057480088401E00044A
:10147000000C554A108000D162B60120D8E7014621
:101480005948408AB0F57A7F01D10020704772B682
:101490004D480088401C4C4A1080534880680170B9
:1014A00051488068401C504A90601046408A401C59
:1014B0005082104680685268904203D14A480068C2
:1014C000494A906040480088401E0004000C3E4A93
:1014D000108000D162B60120D8E770B504460D46F1
:1014E0004DB103E014F8010BFFF76DFE2800A5F1E4
:1014F0000105F7D10DE009E020780A2802D10D207E
:10150000FFF761FE14F8010BFFF75DFE207800285D
:10151000F2D170BD35482B49086000F57A704860FB
:1015200008460068886008460068C8604FF47A7012
:1015300008820020488270472D482A49086000F53B
:101540007A70486008460068886008460068C8608D
:101550004FF47A700882002048827047254822495B
:10156000086000F57A7048600846006888600846A0
:101570000068C8604FF47A70088200204882704783
:1015800000B587B0012144F2050001F051F94FF494
:101590008060ADF8180004208DF81B0006A91648DD
:1015A00000F090FE25208DF8040003208DF8050042
:1015B0008DF8060001208DF8070001A800F0B9FDA4
:1015C0001CE00000FC17002014000020003801403F
:1015D000A400002000440040A80000200048004073
:1015E000AC0000201018002024180020440C00201B
:1015F0002C10002014140020000801404FF4E130AA
:1016000002900020ADF80C00ADF80E00ADF810000F
:10161000ADF814000C20ADF8120002A9674800F0E4
:10162000C2FB012240F22551644800F054FC012124
:10163000624800F044FCFFF76DFF61496148416278
:10164000614981626149C1626149016361494163E4
:1016500007B000BD00B587B00121052001F0E8F812
:101660000121480401F0F1F80420ADF8180003202E
:101670008DF81A0018208DF81B0006A9564800F0B6
:1016800021FE0820ADF8180004208DF81B0006A9E3
:10169000514800F017FE26208DF8040003208DF835
:1016A00005008DF8060001208DF8070001A800F064
:1016B00040FD4FF4E13002900020ADF80C00ADF891
:1016C0000E00ADF81000ADF814000C20ADF81200BB
:1016D00002A9424800F067FB012240F225513F4831
:1016E00000F0F9FB01213D4800F0E9FBFFF724FF82
:1016F0003B49344881633B49C1633B4901643B49F1
:10170000416407B000BD00B587B00121092001F098
:101710008FF80121880401F098F84FF48060ADF84B
:10172000180003208DF81A0018208DF81B0006A958
:101730002F4800F0C7FD4FF40060ADF818000420FA
:101740008DF81B0006A92A4800F0BCFD27208DF863
:10175000040003208DF805008DF8060001208DF8A7
:10176000070001A800F0E5FC4FF4164002900020AD
:10177000ADF80C00ADF80E00ADF81000ADF8140097
:101780000C20ADF8120002A91A4800F00CFB01224F
:1017900040F22551174800F09EFB0121154800F04A
:1017A0008EFBFFF7DBFE1449064881641349C164D0
:1017B000134901651349416507B000BD0038014078
:1017C000811300081C000020C91300081114000830
:1017D000C7110008DB140008000801400044004065
:1017E00099130008E11300081714000823140008D7
:1017F000000C014000480040B1130008F913000834
:101800001D1400087F140008704770B505460C468B
:1018100014B9A5A002F064FA72B6AE480088401C64
:10182000AC490880BDB3012D1BD0022D4ED1AA4872
:101830000078082801D1002070BDA7480178007801
:10184000401CA54A1070A54840F82140A1480088D6
:10185000401E0004000C9F49088000D162B60120A0
:10186000EAE79F480078042801D10020E4E79C487B
:1018700001780078401C9A4A10709A4840F821403C
:1018800094480088401E0004000C9249088000D152
:1018900062B60120D0E7FFE793480078022801D123
:1018A0000020C9E7904801780078401C8E4A1070EB
:1018B0008E4840F8214087480088401E0004000CF4
:1018C0008449088000D162B60120B5E781480088CC
:1018D000401E0004000C7F49088000D162B6002041
:1018E000AAE730B58249834841668348006842F2DE
:1018F0001072B0FBF2F1B1F1807F00D31DE021F056
:101900007F40401E4FF0E022506150170F22002808
:1019100007DA13071D0E794B00F00F04241F1D5525
:1019200003E013071C0E764B1C5400BF00204FF041
:10193000E02290610720106100BF30BD10B57148F2
:101940000078401CC0B26F490870642801D10020A3
:101950000870664908688047644948688047694854
:101960000078642877D2DFE800F032773F7B4C7F45
:1019700059836887338B408F4D935A99699934996D
:1019800041994E995B996A99359942994F995C9919
:101990006B993699439950995D996C993799449907
:1019A00051995E996D993899459952995F996E99B7
:1019B00039994699539960996F993A9947995499E9
:1019C000619970993B99489955996297719800BFB0
:1019D00000BF00BF00BF00BF00BF00BF00BF00BF0F
:1019E0004049086880475AE000BF00BF00BF00BF01
:1019F00000BF00BF00BF00BF00BF3A494868804732
:101A00004DE000BF00BF00BF00BF00BF00BF00BF70
:101A100000BF00BF33498868804740E000BF00BF77
:101A200000BF00BF00BF00BF00BF00BF00BF2D4907
:101A3000C868804702F0C1F831E000BF00BF00BFB6
:101A400000BF00BF00BF00BF00BF00BFFFF72CFCFE
:101A5000FFF772FC23E021E02049086880471EE080
:101A60001E49486880471AE01C498868804716E08C
:101A70001A49C868804712E01849086980470EE093
:101A80001649486980470AE014498869804706E09A
:101A90001249C869804702E001E000E000BF00BFD2
:101AA000FFF71EFB10BD00000A4153534552543A44
:101AB00020726567697374657246756E6374696FC9
:101AC0006E20213D202866756E6374696F6E293023
:101AD0000A00000014000020E8000020C8000020D8
:101AE000E9000020B8000020EA000020B00000203B
:101AF0000B1800081C000020EC00002018ED00E08E
:101B000000E400E0EB000020704700BFFEE700BFEC
:101B1000FEE700BFFEE700BFFEE77047704700002A
:101B20000CB50020019000906B48006840F48030B4
:101B30006949086000BF6848006800F40030009000
:101B40000198401C0190009818B90198B0F5A06F59
:101B5000F1D16148006810F4003F02D001200090EC
:101B600001E0002000900098012842D15B48006805
:101B700040F01000594908600846006820F0030052
:101B800008600846006840F002000860524840685B
:101B9000514948600846406848600846406840F43B
:101BA000806048600846406820F47C104860084621
:101BB000406840F4E81048600846006840F08070D3
:101BC000086000BF4448006810F0007FFAD0424827
:101BD000406820F00300404948600846406840F0F3
:101BE0000200486000BF3C48406800F00C00082834
:101BF000F9D10CBD10B5FFF793FF10BD10B53648F5
:101C0000006840F0010034490860084640683449E3
:101C100008403149486008460068324908402E496A
:101C200008600846006820F4802008600846406884
:101C300020F4FE0048604FF41F008860FFF7DAFFD1
:101C40004FF000602849086010BD10B50021002049
:101C50000022214B5B6803F00C0121B1042906D05E
:101C6000082928D107E0214B214C236027E01F4B96
:101C70001F4C236023E0184B5B6803F47010164B75
:101C80005B6803F48032022303EB904022B9194BC6
:101C90004343174C23600DE00F4B5B6813F4003F88
:101CA00004D0144B4343124C236003E00F4B4343D7
:101CB0000F4C236003E00D4B0D4C236000BF00BFB1
:101CC000054B5B68C3F303130B4CE15C084B1B68CB
:101CD000CB40074C236010BD0010024000200240A2
:101CE0000000FFF8FFFFF6FE08ED00E000127A00AA
:101CF000EC00002000093D00F0000020064880476D
:101D000006480047FEE7FEE7FEE7FEE7FEE7FEE7E0
:101D1000FEE7FEE7FEE7FEE7FD1B0008ED0000081A
:101D200010B50446FB48844209D10121880300F024
:101D300099FD00214FF4804000F094FD32E0F64818
:101D4000844209D10121480400F099FD00214FF49B
:101D5000003000F094FD25E0F048844209D10121D3
:101D6000880400F08CFD00214FF4802000F087FDF6
:101D700018E0EB48844209D10121C80400F07FFD3E
:101D800000214FF4002000F07AFD0BE0E54884428A
:101D900008D10121080500F072FD00214FF48010E8
:101DA00000F06DFD10BD2DE9F04786B005460E46EA
:101DB0000024A24600BFA1460027B08900B100BFA1
:101DC0002F462C8A4CF6FF700440F08804432C8286
:101DD000AC894EF6F3100440B0883189084371890C
:101DE00008430443AC81AC8A4FF6FF400440B089FD
:101DF0000443AC8201A800F0AEFCC648874202D181
:101E0000DDF810A001E0DDF80CA0A88910F4004F67
:101E100008D00AEBCA0000EB0A1031684900B0FB99
:101E2000F1F807E00AEBCA0000EB0A1031688900FC
:101E3000B0FBF1F86420B8FBF0F004012009642144
:101E400001FB1089A88910F4004F08D0322000EB64
:101E5000C900B0FBF1F000F00700044308E03220B5
:101E600000EB09106421B0FBF1F000F00F00044317
:101E70002C8106B0BDE8F0874FF4165101600021B7
:101E80008180C18001810C214181002181817047C5
:101E900010B502460020108A4FF2FF0318400B884D
:101EA0004C8823438C882343CC88234318431082D7
:101EB00010BD0021018041808180C180704721B127
:101EC000828942F40052828104E082894DF6FF73D8
:101ED0001A4082817047F0B5034600240026002591
:101EE0000020A1F510676A3F00D100BF1846C1F37A
:101EF000421401F01F06012707FA06F5012C01D153
:101F00000C3004E0022C01D1103000E014301AB182
:101F100007682F43076002E00768AF430760F0BD22
:101F20001AB1838A0B43838202E0838A8B438382C4
:101F30007047028A4FF6F0731A400282028A0A43FF
:101F40000282704782894FF2FF731A408281828930
:101F50000A438281704721B1828942F00202828164
:101F600004E082894FF6FD731A4082817047028A2D
:101F70004FF6DF731A400282028A0A4302827047D8
:101F800021B1028A42F48042028204E0028A4BF6C6
:101F9000FF731A4002827047C1F3080282807047C3
:101FA00001468888C0F308007047818941F001012B
:101FB00081817047028BD2B20283028B42EA0122F6
:101FC00002837047028B02F47F420283028B0A4332
:101FD0000283704721B1828A42F02002828204E0AB
:101FE000828A4FF6DF731A408282704721B1828A5B
:101FF00042F01002828204E0828A4FF6EF731A40A8
:102000008282704721B1828A42F00802828204E013
:10201000828A4FF6F7731A408282704721B1828913
:1020200042F40042828103E08289C2F30E0282817F
:10203000704721B1828A42F40062828204E0828A7F
:102040004FF2FF731A4082827047828A4FF6FB7309
:102050001A408282828A0A438282704721B1828A30
:1020600042F00202828204E0828A4FF6FD731A4037
:102070008282704702460020B1F5007F00D100BF88
:1020800013880B4201D0012000E00020704701F4CA
:102090000072B2F5007F00D100BFCA4302807047D2
:1020A00070B502460024002300250020A1F510662B
:1020B0006A3E00D100BFC1F3421501F01F030126A3
:1020C00006FA03F3012D02D19689334006E0022D72
:1020D00002D1168A334001E0968A33400C12012661
:1020E00006FA04F41688344013B10CB1012000E064
:1020F000002070BD10B500220023A1F510646A3CD9
:1021000000D100BF0A1201249440A3B2DC43048032
:1021100010BD00000038014000440040004800406D
:10212000004C00400050004031490143314A1160E9
:10213000704770B5002100230F22C4780CB32D4CDA
:10214000246804F4E064C4F5E064210AC1F10403E6
:10215000CA40447804FA03F1847814402143090109
:10216000254C0678A155047804F01F050124AC40E5
:1021700005786D114FF0E02606EB8505C5F80041A6
:1021800009E0047804F01F050124AC401B4D0678DB
:10219000761145F8264070BD194A0A400243154B96
:1021A0001B1F1A60704739B1124A121D1268024390
:1021B000104B1B1D1A6006E00E4A121D1268824366
:1021C0000C4B1B1D1A607047042808D14FF0E0210A
:1021D000096941F004014FF0E022116107E04FF07E
:1021E000E021096921F004014FF0E02211617047FC
:1021F0000000FA050CED00E000E400E080E100E002
:1022000080FFFF1F10B50446CA48844208D101214F
:10221000042000F027FB0021042000F023FB46E00F
:10222000C548844208D10121082000F01BFB002191
:10223000082000F017FB3AE0C048844208D1012191
:10224000102000F00FFB0021102000F00BFB2EE00F
:10225000BB48844208D10121202000F003FB00216B
:10226000202000F0FFFA22E0B648844208D1012184
:10227000402000F0F7FA0021402000F0F3FA16E0C9
:10228000B148844208D10121802000F0EBFA0021FE
:10229000802000F0E7FA0AE0AC48844207D101212F
:1022A000801500F0DFFA0021A01500F0DBFA10BD68
:1022B00010B50121084600F0D5FA0021012000F0F8
:1022C000D1FA10BD2DE9F04102460025002600207C
:1022D00000230024002791F803C00CF00F0591F8AB
:1022E00003C01CF0100F03D091F802C04CEA0505A2
:1022F00091F800C0BCF1000F31D0146800202BE031
:102300004FF0010C0CFA00F3B1F800C00CEA030620
:102310009E4220D183004FF00F0C0CFA03F7BC4310
:1023200005FA03FC4CEA040491F803C0BCF1280F41
:1023300006D14FF0010C0CFA00FCC2F814C00AE000
:1023400091F803C0BCF1480F05D14FF0010C0CFA15
:1023500000FCC2F810C0401C0828D1D31460B1F8AA
:1023600000C0BCF1FF0F34DD546800202EE000F106
:10237000080C4FF0010808FA0CF3B1F800C00CEAA1
:1023800003069E4221D183004FF00F0C0CFA03F795
:10239000BC4305FA03FC4CEA040491F803C0BCF109
:1023A000280F05D100F1080C08FA0CF8C2F81480C7
:1023B00091F803C0BCF1480F07D100F1080C4FF0B1
:1023C000010808FA0CF8C2F81080401C0828CED387
:1023D0005460BDE8F0814FF6FF71018002218170E9
:1023E0000421C17070470246002093680B4201D05F
:1023F000012000E0002070470146886880B27047E5
:1024000002460020D3680B4201D0012000E00020EA
:1024100070470146C86880B27047016170474161EA
:1024200070470AB1016100E041617047C1607047C7
:102430004FF480320A4382618161826182698269DC
:10244000704702460020424B18684FF680731840D0
:1024500040EA021008433E4B186070473D49C8618E
:102460007047F0B50A46002300240021002500F043
:102470000046B6F1004F02D1354EF16901E0344E0D
:102480007168C0F3034583B200F44016B6F5401FEF
:1024900008D121F070612E4E766826F070662C4FC0
:1024A0007E6012E000F48016B6F5801F06D1032688
:1024B00006FA05F4A14341F0706106E0460D3601CD
:1024C00003FA06F6B14341F0706122B1460D3601C0
:1024D00003FA06F6314300F00046B6F1004F02D190
:1024E0001B4EF16101E01A4E7160F0BD30B5002263
:1024F0008B071C0F0F2303FA04F2154B08338C10C3
:1025000053F824309343124C08348D1044F825308E
:1025100023468C1053F824308C07240F00FA04F45F
:1025200023430B4C08348D1044F8253030BD0A4944
:102530000860704700080140000C01400010014095
:102540000014014000180140001C0140002001401F
:102550000000014000002042DC002042DD4800680D
:1025600040F00100DB49086008464068DA4908404D
:10257000D849486008460068D8490840D5490860ED
:102580000846006820F4802008600846406820F46F
:10259000FE0048604FF41F0088607047CD4909680D
:1025A00021F48031CB4A11601146096821F4802161
:1025B0001160B0F5803F03D0B0F5802F0ED106E05A
:1025C000C449096841F48031C24A116007E0C14939
:1025D000096841F4A021BF4A116000E000BF00BFBC
:1025E000704710B501460022002300204A11012A3D
:1025F00002D1B84C236806E0022A02D1B54C236A06
:1026000001E0B44C636A01F01F02012494401C42B3
:1026100001D0012000E0002010BD38B5002000905E
:102620000024002500BF3120FFF7DBFF054600989E
:10263000401C00900098B0F5A06F01D0002DF2D0A2
:102640003120FFF7CEFF08B1012400E0002420462E
:1026500038BD014600209F4A106820F0F80040EA8B
:10266000C100106070479E49086070470246002014
:10267000984B586820F47C1042EA01031843954BAC
:102680005860704796490866704701460020914A95
:10269000506820F003000843506070478D48406840
:1026A00000F00C007047014600208A4A506820F074
:1026B000F00008435060704701460020854A50688A
:1026C00020F4E06008435060704701460020814AD2
:1026D000506820F4605040EAC1005060704729B152
:1026E0007C4A527A02437B4B5A7204E0794A527A0E
:1026F0008243784B5A7270477A49086070470146A6
:102700000020744A506820F44040084350607047ED
:102710000021754A11706F4A82F82010012802D0FA
:10272000042808D103E001216F4A117004E005215B
:102730006D4A117000E000BF00BF70476B49086030
:1027400070476449096A0143624A116270476749E8
:1027500044390860704730B500210022002400236E
:102760005C4D6D6805F00C0121B1042905D00829E4
:1027700023D105E05E4D056022E05D4D05601FE060
:10278000544D6D6805F47012524D6D6805F4803437
:10279000022505EB92421CB9564D554305600BE0EE
:1027A0004C4D6D6815F4003F03D0524D5543056004
:1027B00002E04F4D5543056002E04D4D056000BFFE
:1027C00000BF444D6D6805F0F00109094A4D6B5C8E
:1027D0000568DD4045603F4D6D6805F4E061090A1C
:1027E000454D6B5C4568DD4085603A4D6D6805F48C
:1027F0006051C90A404D6B5C4568DD40C560354D90
:102800006D6805F44041890B3C4D6B5CC568B5FBB8
:10281000F3F5056130BD29B12E4A526902432D4BB3
:102820005A6104E02B4A526982432A4B5A6170472D
:1028300029B1284A92690243264B9A6104E0254A4D
:1028400092698243234B9A61704729B1214AD26928
:102850000243204BDA6104E01E4AD26982431D4BD9
:10286000DA61704729B11B4AD2680243194BDA601A
:1028700004E0184AD2688243164BDA60704729B1E7
:10288000144A12690243134B1A6104E0114A126997
:102890008243104B1A6170471449403908607047F1
:1028A0000F49C86470470B49C87170470948406AAE
:1028B00040F0807007494862704701460020054A91
:1028C00092680A4201D0012000E0002070470149CF
:1028D00088727047001002400000FFF8FFFFF6FE0C
:1028E00000004242D800424220100240800442428E
:1028F00000127A0000093D000001002010010020B4
:1029000010B50446FA48844208D101214015FFF76A
:10291000A9FF00216015FFF7A5FF17E0F5488442E5
:1029200008D101210015FFF79DFF00212015FFF7B9
:1029300099FF0BE0F048844208D10121C803FFF75A
:1029400091FF00214FF40040FFF78CFF10BD30B520
:102950000246002000235068E84C20400D790C68A6
:1029600044EA0524204350609068E54C2040D1E9BA
:1029700002542C434D7944EA450420439060D06AC8
:1029800020F470000C7C641EE4B2234340EA035040
:10299000D06230BD00210160017141718160C16070
:1029A00001210174704721B1826842F00102826006
:1029B00003E0826822F001028260704721B18268E0
:1029C00042F48072826003E0826822F48072826046
:1029D000704710B50023CBB21AB144681C43446061
:1029E00002E044689C43446010BD816841F00801E6
:1029F00081607047014600208A6812F0080F01D0FC
:102A0000012000E000207047816841F004018160EE
:102A10007047014600208A6812F0040F01D001209F
:102A200000E00020704721B1826842F4A002826079
:102A300003E0826822F4A002826070470146002011
:102A40008A6812F4800F01D0012000E00020704756
:102A500010B50A4600210023416821F46041531E4D
:102A600041EA4331416010BD21B1426842F4006245
:102A7000426003E0426822F4006242607047F0B5B1
:102A800004460D4600200021092D11DDE068A5F166
:102A90000A0606EB4607072606FA07F18843A5F162
:102AA0000A0606EB460603FA06F10843E0600CE06E
:102AB000206905EB4507072606FA07F1884305EB71
:102AC000450603FA06F108432061072A0FDA606B16
:102AD000561E06EB86071F2606FA07F18843561E88
:102AE00006EB860605FA06F10843606322E00D2A2C
:102AF0000FDA206BD61F06EB86071F2606FA07F1B2
:102B00008843D61F06EB860605FA06F108432063C4
:102B100010E0E06AA2F10D0606EB86071F2606FA12
:102B200007F18843A2F10D0606EB860605FA06F1C9
:102B30000843E062F0BD21B1826842F480128260F5
:102B400003E0826822F48012826070470146C86CFC
:102B500080B2704766484C300068704721B14268C7
:102B600042F48062426003E0426822F48062426084
:102B7000704721B1426842F48052426003E04268EB
:102B800022F48052426070470A460021816821F495
:102B9000E04111438160704721B1826842F40042F4
:102BA000826003E0826822F400428260704721B1B3
:102BB000826842F40212826003E0826822F4021208
:102BC00082607047014600208A6812F4001F01D01D
:102BD000012000E000207047F0B5044615460020B3
:102BE00000220026092911DDE068A1F10A0707EBA0
:102BF000470C072707FA0CF29043A1F10A0707EBED
:102C0000470703FA07F21043E0600CE0206901EB8C
:102C1000410C072707FA0CF2904301EB410703FA36
:102C200007F210432061A06BC0F30156EF1C06F1C0
:102C3000010CA7EB0C0707EB870C1F2707FA0CF218
:102C40009043EF1C06F1010CA7EB0C0707EB87077D
:102C500001FA07F21043A063F0BD10B50A46002147
:102C60000023816B21F44011531E41EA035181631B
:102C700010BD08B5002300930090009B0B44009307
:102C8000009B1A6008BD08B5024600200090009223
:102C900001F12800009B184400900098006880B261
:102CA00008BD0A4600214168164B19401143416096
:102CB00070474162826270470A460021416821F0F4
:102CC0001F0111434160704740B10949083109684B
:102CD00041F40001064A0832116007E00449083156
:102CE000096821F40001024A0832116070470000AF
:102CF0000024014000280140003C0140FFFEF0FF9D
:102D0000FDF7F1FFFFFD3FFF0246002013680B4275
:102D100001D0012000E000207047CA4302607047E4
:102D200070B502460020002300240B125568CEB275
:102D300005EA060415681D4202D00CB1012000E02E
:102D4000002070BD00220A12D343036070470000C8
:102D500010B50446FE48844208D10121C014FFF793
:102D600081FD0021E014FFF77DFDC4E0B4F1804F48
:102D700008D101210846FFF782FD00210120FFF75D
:102D80007EFDB8E0F348844208D101210220FFF71C
:102D900076FD00210220FFF772FDACE0EE48844290
:102DA00008D101210420FFF76AFD00210420FFF76C
:102DB00066FDA0E0E948844208D101210820FFF720
:102DC0005EFD00210820FFF75AFD94E0E4488442AC
:102DD00008D101211020FFF752FD00211020FFF73C
:102DE0004EFD88E0DF48844208D101212020FFF712
:102DF00046FD00212020FFF742FD7CE0DA488442B6
:102E000008D101214014FFF72DFD00216014FFF7C8
:102E100029FD70E0D548844209D10121C804FFF79B
:102E200021FD00214FF40020FFF71CFD63E0D04896
:102E3000844209D101210805FFF714FD00214FF458
:102E40008010FFF70FFD56E0CA48844209D10121E6
:102E50004805FFF707FD00214FF40010FFF702FDC2
:102E600049E0C548844208D101214020FFF707FD11
:102E700000214020FFF703FD3DE0C048844208D117
:102E800001218020FFF7FBFC00218020FFF7F7FCE9
:102E900031E0BB48844208D101218015FFF7EFFCE7
:102EA0000021A015FFF7EBFC25E0B648844209D1CC
:102EB00001210804FFF7D6FC00214FF48030FFF712
:102EC000D1FC18E0B048844209D101214804FFF741
:102ED000C9FC00214FF40030FFF7C4FC0BE0AB4805
:102EE000844208D101218804FFF7BCFC00214FF483
:102EF0008020FFF7B7FC10BD00220288944B984257
:102F00000ED0994B98420BD0B0F1804F08D0914B26
:102F1000984205D0904B984202D0904B984204D1F1
:102F20004FF68F731A404B881A438D4B984207D047
:102F30008C4B984204D04FF6FF431A40CB881A437B
:102F400002808B8883850B880385814B98420BD048
:102F5000854B984208D08B4B984205D08A4B9842BB
:102F600002D08A4B984201D10B7A038601238382D7
:102F7000704770B5002400220023058C4FF6FE76C2
:102F800035400584028C8388048B4FF68F752C4066
:102F9000B51E2C400D882C43751E2A400D892A43EE
:102FA0004D882A436A4DA8420BD06F4DA84208D0E5
:102FB000744DA84205D0744DA84202D0734DA8426A
:102FC00013D14FF6F7752A404D892A434FF6FB750A
:102FD0002A408D882A434FF6FF652B404FF6FF5558
:102FE0002B408D892B43CD892B4383800483CD884F
:102FF0008586028470BD70B5002400220023058CF4
:103000004FF6EF7635400584028C8388048B48F6B2
:10301000FF752C404FF6FF452C400D884FF6FF768C
:1030200006EA05252C434FF6DF752A400D8906EA8E
:1030300005152A434D8806EA05152A43444DA84242
:1030400002D0494DA8421DD14FF67F752A404D89C7
:103050004FF6FF7606EA05152A434FF6BF752A405C
:103060008D8806EA05152A434FF6FF352B404FF2AF
:10307000FF752B408D8906EA85052B43CD8906EA2D
:1030800085052B4383800483CD880587028470BD2A
:1030900070B5002400220023058C4FF6FF663540F2
:1030A0000584028C8388848B4FF68F752C404FF6F5
:1030B000FC752C400D882C434FF6FF552A400D8996
:1030C0004FF6FF7606EA05252A434D8806EA0525D0
:1030D0002A431F4DA84202D0234DA8421DD14FF2D2
:1030E000FF752A404D894FF6FF7606EA05252A43EB
:1030F0004FF6FF352A408D8806EA05252A434EF60D
:10310000FF752B404DF6FF752B408D8906EA05159E
:103110002B43CD8906EA05152B4383808483CD8814
:103120008587028470BD70B5002200230024058CC1
:103130004EF6FF7635400584038C8488828B48F6F2
:10314000FF752A404FF6FF452A400D8820E0000019
:10315000002C01400004004000080040000C00402A
:10316000001000400014004000340140004C0140B9
:10317000005001400054014000180040001C004075
:103180000020004000400140004401400048014050
:103190004FF6FF7606EA05252A434DF6FF752B40CC
:1031A0000D8906EA05352B434D8806EA05352B4384
:1031B000FA4DA84202D0FA4DA84208D14BF6FF754D
:1031C0002C408D894FF6FF7606EA85152C438480C6
:1031D0008283CD88A0F84050038470BD828B4FF26B
:1031E000FF331A408283828B4FF6FF7303EA012379
:1031F0001A4382837047F0B50C4615460022002121
:103200000026078C4EF6FF7C07EA0C070784828BAA
:10321000018C4FF6FF7707EA043640F6FF473A4045
:103220004FF6FF7707EA05273A434FF6FF7707EA9D
:1032300003373A43D94FB8420ED0D94FB8420BD0DA
:10324000B0F1804F08D0D74FB84205D0D64FB84222
:1032500002D0D64FB84206D14DF6FF77394046F43A
:103260008057394305E047F6FF57394044F480570B
:10327000394382830184F0BD828B4FF6F3731A4089
:103280008283828B0A4382837047F0B50C461546D1
:10329000002200210026078C4FF6FF6C07EA0C077E
:1032A0000784828B018C4FF6FF7707EA04264FF6DE
:1032B0000C773A404FF6FF7707EA03172F433A435C
:1032C000B64FB8420ED0B64FB8420BD0B0F1804FD7
:1032D00008D0B44FB84205D0B34FB84202D0B34F74
:1032E000B84206D14FF6FF57394046F4807739434C
:1032F00005E04FF2FF57394044F480773943828329
:103300000184F0BD028B4FF2FF331A400283028B1F
:103310004FF6FF7303EA01231A4302837047F0B5A7
:103320000C461546002200210026078C4FF6EF7C44
:1033300007EA0C070784028B018C4FF6FF7707EA38
:10334000041640F6FF473A404FF6FF7707EA033787
:103350003A434FF6FF7707EA05273A438F4FB842C3
:103360000ED08F4FB8420BD0B0F1804F08D08D4FA8
:10337000B84205D08C4FB84202D08C4FB84206D12B
:103380004FF6DF77394046F01007394305E04FF636
:103390005F77394044F01007394302830184F0BD60
:1033A000028B4FF6F3731A400283028B0A430283A7
:1033B0007047F0B50C46154600220021068C4FF6EA
:1033C000FE773E400684028B018C4FF60C7632402D
:1033D0007E1C06EA03162E433243704EB0420ED0D6
:1033E0006F4EB0420BD0B0F1804F08D06D4EB0425E
:1033F00005D06D4EB04202D06C4EB04206D14FF6B1
:10340000FD76314044F00106314305E04FF6F57694
:10341000314044F00106314302830184F0BD70B5B0
:1034200005460C465D4885420ED05D4885420BD06E
:10343000B5F1804F08D05B48854205D05A48854297
:1034400002D05A48854200D100E000BF208850B920
:103450002389A28861882846FFF7ABFFE1882846C8
:10346000FFF79EFF25E0208804280AD12389A2883F
:1034700061882846FFF753FFE1882846FFF742FF9F
:1034800017E0208808280AD12389A2886188284665
:10349000FFF7FBFEE1882846FFF7EEFE09E02389EF
:1034A000A28861882846FFF7A6FEE1882846FFF734
:1034B00095FE70BD2DE9F04105460C46002601271A
:1034C000608808B9022600E00026A088012801D102
:1034D000022700E001272088A0B92389A2886188FB
:1034E0002846FFF766FFE1882846FFF759FF238942
:1034F0003A4631462846FFF712FFE1882846FFF793
:1035000001FF13E02389A28861882846FFF707FF9F
:10351000E1882846FFF7F6FE23893A4631462846D9
:10352000FFF747FFE1882846FFF73AFFBDE8F08143
:103530000A884B881A438B881A43CB881A430B8915
:103540001A434B891A438B891A43A0F844207047C9
:103550004FF6FF71818000210180C180418001729E
:1035600070470021018041808180C18001814181BB
:103570008181C181704700210180418001218180CA
:103580000021C1800181704700210180418081803C
:10359000C18001814181818170470000002C014080
:1035A000003401400004004000080040000C0040CE
:1035B00021B1028842F00102028004E002884FF645
:1035C000FE731A400280704731B1B0F8442042F4D3
:1035D0000042A0F8442005E0B0F84420C2F30E02F7
:1035E000A0F8442070471AB183890B43838102E01D
:1035F00083898B43838170478182704741EA02034C
:10360000A0F8483070471AB183890B43838102E0E8
:1036100083898B438381704701894FF6F87211408B
:10362000018170470A46002101894FF68F731940C6
:1036300011430181704730B504460D4629462046A6
:10364000FFF7F0FF208940F00700208130BD2DE911
:10365000F04104460D4616461F46602D06D13B46F6
:10366000012231462046FFF75AFE05E03B46012283
:1036700031462046FFF79DFE29462046FFF7D2FF40
:10368000208940F007002081BDE8F08130B50C466C
:1036900000210189C9B24FF6FF7505EA03251543DC
:1036A00025432943018130BD2DE9F04105460E46F1
:1036B00017469846002443463A4631462846FFF7C7
:1036C000E5FF2C894FF6F870044044F007044FF6EC
:1036D0008F70044044F070042C81BDE8F081F0B597
:1036E00004460D4616461F463B46324629462046AE
:1036F000FFF7CCFF208940F480402081F0BD018598
:10370000828270470A46002101884FF68F73194064
:10371000114301807047F0B50C4615461E46002146
:10372000002200230189028B038C4FF6F877394081
:1037300021434FF6FC473A4040F201173A434FF617
:10374000DD773B404FF6FF7707EA06172F433B43F1
:10375000018102830384F0BD0A460021018B4FF6EC
:103760008F7319401143018370470A460021018B72
:1037700048F6FF7319404FF6FF7303EA022319431B
:10378000018370470A460021818B4FF68F731940E1
:103790001143818370470A460021818B48F6FF73ED
:1037A00019404FF6FF7303EA0223194381837047E0
:1037B00021B1028842F08002028004E002884FF6C4
:1037C0007F731A400280704721B1828842F0040260
:1037D000828004E082884FF6FB731A408280704733
:1037E00021B1828842F00802828004E082884FF68C
:1037F000F7731A408280704721B1828842F001023B
:10380000828004E082884FF6FE731A4082807047FF
:103810000A460021018B4FF6F773194011430183CB
:1038200070470A460021018B4FF2FF7319404FF693
:10383000FF7303EA02231943018370470A460021FC
:10384000818B4FF6F77319401143818370470A4605
:103850000021818B4FF2FF7319404FF6FF7303EA8B
:1038600002231943818370470A460021018B4FF6DA
:10387000FB7319401143018370470A460021018BF5
:103880004FF6FF3319404FF6FF7303EA0223194343
:10389000018370470A460021818B4FF6FB73194064
:1038A0001143818370470A460021818B4FF6FF3315
:1038B00019404FF6FF7303EA0223194381837047CF
:1038C0000A460021018B4FF67F7319401143018393
:1038D00070470A460021018BC1F30E014FF6FF73BA
:1038E00003EA02231943018370470A460021818BB2
:1038F0004FF67F7319401143818370470A460021B8
:10390000818BC1F30E014FF6FF7303EA02231943C3
:10391000818370470A460021018C4FF6FD731940E0
:103920001143018470470A460021018C4FF6F7735A
:1039300019401143018470470A460021018C4FF65B
:10394000DF7319404FF6FF7303EA02131943018432
:1039500070470A460021018C4FF67F7319404FF6DD
:10396000FF7303EA02131943018470470A460021DA
:10397000018C4FF6FF5319404FF6FF7303EA022301
:103980001943018470470A460021018C4FF2FF73EE
:1039900019404FF6FF7303EA02231943018470476D
:1039A0000A460021018C4DF6FF7319404FF6FF7354
:1039B00003EA023319430184704730B50023012420
:1039C0008C40A3B2048C9C430484048C02FA01F55D
:1039D000ADB22C43048430BD30B5002304248C40A8
:1039E000A3B2048C9C430484048C02FA01F5ADB2AA
:1039F0002C43048430BD70B50346002000241846D3
:103A0000183001258D40ACB21D8CA5431D8409B131
:103A1000082909D100EB6100056825F070050560F3
:103A20000568154305600EE00D1FC5F34E052844DB
:103A3000056825F4E045056005684FF6FF7606EA5F
:103A400002263543056070BD21B1028842F00202B2
:103A5000028004E002884FF6FD731A40028070472E
:103A600021B1028842F00402028004E002884FF68D
:103A7000FB731A400280704721B1828842F08002B5
:103A8000828004E082884FF67F731A4082807047FC
:103A900002884FF6F7731A40028002880A430280B8
:103AA000704782884FF68F731A40828082880A435B
:103AB0008280704702894FF6F8731A4002810289AA
:103AC0000A430281704702894FF67F731A400281D0
:103AD00002890A430281704781847047818570475B
:103AE000818670470187704781877047A0F8401032
:103AF000704702884FF6FF431A40028002880A434B
:103B0000028070470146888E70470146088F7047D3
:103B10000146888F70470146B1F840007047014662
:103B2000888C70470146088D704702460020138A32
:103B30000B4201D0012000E000207047CA430282FE
:103B4000704730B50246002000230024158A05EA9C
:103B50000103958905EA010413B10CB1012000E0CD
:103B6000002030BDCA43028270470000002004E0FC
:103B70000021424A22F81010401C0828F8D30121E5
:103B80003F4A117070473F4802883F480088111A29
:103B9000C82902DBA1F5C87104E011F1C80F01DAF0
:103BA00001F5C87138480280384800880844374B0E
:103BB00018801846008800B27047704700B587B07B
:103BC0000121C802FEF734FE01210420FEF730FE79
:103BD0006846FEF700FC4FF44070ADF8000004208A
:103BE0008DF8030069462A48FEF76CFB2548243807
:103BF000FFF7AEF804A8FFF7ABFC0020ADF810000B
:103C000040F28F10ADF814000020ADF81600ADF8AA
:103C1000120004A91B482438FFF76EF900231A4646
:103C2000032118482438FFF776FD01A8FFF7A3FC0D
:103C30000620ADF80C0001A912482438FFF7EFFB6D
:103C4000012110482438FFF779FF012211460D4861
:103C50002438FFF7C8FC64200A4908800846008819
:103C60000A490880012107482438FFF7A1FCAFF278
:103C7000E9010848816507B000BD00003818002040
:103C800015010020242C01401801002016010020FD
:103C9000000801401C00002040EA01039B0703D0FC
:103CA00009E008C9121F08C0042AFAD203E011F87B
:103CB000013B00F8013B521EF9D27047064C074DFC
:103CC00006E0E06840F0010394E8070098471034EC
:103CD000AC42F6D3FCF70EFA403D0008603D000808
:103CE000014A024900F013B8231200082001002005
:103CF00002E008C8121F08C1002AFAD170477047B5
:103D0000002001E001C1121F002AFBD170472DE9FC
:103D1000F04116460F460446002503E03946B047F9
:103D20006D1C641C20780028F8D12846BDE8F0817D
:103D300030313233343536373839414243444546E1
:103D4000603D00080000002024010000F03C000855
:103D5000843E000824010020241B0000003D0008D0
:103D60000000000000000000000000000101000051
:103D70000000000000000000000000004F0A0008E2
:103D80000000000000000000000000000000000033
:103D90000000000000000000000000000000000023
:103DA0000000000000000000000000000000000013
:103DB0000000000000000000000000000000000003
:103DC00000000000000000000000000000000000F3
:103DD00000000000000000000000000000000000E3
:103DE00000000000000000000000000000000000D3
:103DF000A2000020A2000020A2000020A2000020BB
:103E000000000000C5110008C5110008C511000818
:103E100009180008091800080918000809180008FE
:103E200009180008091800080918000809180008EE
:103E300009180008091800080918000809180008DE
:103E400009180008091800080000000000A24A0430
:103E5000000000000000000001020304060708093A
:103E60000000000001020304010203040607080920
:103E7000020406080001000000000000000000002D
:043E8000000000003E
:04000005080000ED02
:00000001FF
