:020000040800F2
:1000000018160020C11E0008E11C0008E31C0008AF
:10001000E71C0008EB1C0008EF1C000800000000B3
:10002000000000000000000000000000F31C0008B9
:10003000F51C0008000000009B3B0008111B000895
:10004000DB1E0008DB1E0008DB1E0008DB1E0008AC
:10005000DB1E0008DB1E0008DB1E0008DB1E00089C
:10006000DB1E0008DB1E0008DB1E0008DB1E00088C
:10007000DB1E0008DB1E0008DB1E0008DB1E00087C
:10008000DB1E0008DB1E0008DB1E0008DB1E00086C
:10009000DB1E0008DB1E0008DB1E0008DB1E00085C
:1000A000DB1E0008DB1E0008DB1E0008DB1E00084C
:1000B000DB1E0008DB1E0008DB1E0008DB1E00083C
:1000C000DB1E0008DB1E0008DB1E0008DB1E00082C
:1000D000DB1E0008FD170008DB1E0008DB1E000801
:1000E000DB1E0008DB1E0008DB1E0008DFF80CD05A
:1000F00004F0F0FF004800478502000818160020B1
:10010000704710B504462146FF2000F046FC10BDA4
:1001100000B589B06948816C01A8884701A807C863
:1001200004AB07C3BDF81A1065A005F0A3F8BDF82D
:10013000181069A005F09EF86DA0049905F09AF8D2
:1001400070A0059905F096F85C48416B02A88847B5
:10015000DDE90201CDE90701BDF820106EA005F030
:1001600089F8BDF81E1072A005F084F8BDF81C10C7
:1001700075A005F07FF8BDF81C00BDF81E10884280
:1001800004DA4E48426CDDE9070190477348744930
:1001900008604A48C16B724888471420704948601B
:1001A0004648C16B6E48001D884741F270706C492B
:1001B000C8614248C16B6A481C3088473220684990
:1001C00008623E48C16B66482030884765486449EC
:1001D00048623A48C16B62482430884762486049A7
:1001E00088623648C16B5E482830884732205C49B7
:1001F000C8623248C16B5A482C30884700205849A1
:1002000008632E48C16B56483030884757485449D8
:1002100048632A48C16B52483430884741F27070B5
:100220004F4988606320C8606520086119204861D3
:10023000012088614E48006888634D48001D0068B1
:10024000C8634B4808300068086409B000BD10B5A9
:10025000FFF75EFF00F07AF918484649826D0220E8
:10026000904716483E490C310269002090471348D8
:100270003B4910310269012090471048016A3E480D
:10028000884710BD10B50D4908688047FFF7DFFFAC
:100290000A483A49026E3A48904708483949026E7E
:1002A0003948904705482821426E384890473849D8
:1002B00008600249C86D8047002010BD0C00002076
:1002C0000AC8D5D6BED7DCB4E6B4A2BFD5BCE420FC
:1002D0003D202564000000000AC8D5D6BED2D1B4A6
:1002E000E6B4A2BFD5BCE420203D20256400000078
:1002F0000AC8D5D6BEB6C1C8A1B5E3203D20257831
:10030000000000000AC8D5D6BED0B4C8EBB5E320C3
:100310003D202578000000000A0AB2CECAFDD7DCD5
:10032000B4E6B4A2BFD5BCE4203D202564000000A3
:100330000AB2CECAFDD2D1B4E6B4A2BFD5BCE42085
:10034000203D2025640000000AB2CECAFDB4E6B408
:10035000A2B8F6CAFD203D2025640A00A0BB0D000E
:10036000BC09002020F40E00A08601001C080D002E
:10037000E8F7FF1F010100080301000888070020BB
:10038000C304000818090020C30800081C09002045
:10039000080000206848416C9830814203D1283819
:1003A0006549486404E06448406C1430624948641C
:1003B000704710B56048406C006900B910BD5E4AD6
:1003C000526C10695D4A116C884700BFF6E710B5A2
:1003D0005A48016C584888475848016C5648001DD7
:1003E00088475648016C54481C3088475348016C74
:1003F0005148203088475148016C4F482430884785
:100400004E48016C4C48283088474C48016C4A489B
:100410002C3088474948016C474830308847474866
:10042000016C45483430884710BD00204249496C72
:1004300008614148703040494864704770B50446CF
:10044000072C39D007DC072C39D2DFE804F0161A64
:100450002329181C1100A4F1300007282FD2DFE84F
:1004600000F00D111C2A0F130400FFF793FF26E084
:100470003249D1F88400804721E000BF00BF00BFAF
:1004800000BF00BF00BF00BF2C48D0F88810204636
:10049000884714E0FFF78DFF11E0FFF798FF0EE0AB
:1004A000274801780078401C254D28702348426D6C
:1004B00024A0904703E002E0FFF7B7FF00BF00BFB2
:1004C00070BD08B51D48016F4FF4FA6088471A489F
:1004D0005C301949486400240FE01848016F64201B
:1004E0008847052094FBF0F100FB1140C1B212488F
:1004F000006E401C0155601CC4B2102CEDDB0E4890
:1005000070300D49486415E00C480021826E0E4899
:10051000006890470090009820F07F459DF8030008
:10052000FF2803D1E8B2FFF789FF02E00098804777
:1005300000BF00BFE8E70000BC0900200C0000205D
:100540000000002025640A000800002010B5E248E1
:10055000A0F148014864E148D0F88010DE4888479F
:10056000DF49DD4848388164DC48D0F88010DA483B
:10057000143088472A20DB490870002405E0002158
:10058000D848401C0155601CC4B2102CF7DBD5497B
:10059000D14848380166D148D0F88010CE4828307C
:1005A0008847CF494431CC4848380167CB48CE49C9
:1005B000C26FC94828309047C7484838CA490861BF
:1005C000CA484861CA4888614FF47A70C86142F2EB
:1005D00010700862002008730D2008700020487019
:1005E000BE48C449C26FBC4828309047BA48443816
:1005F000C0490861002008736420486100208861B8
:100600000120C8610A200862062008700120487095
:10061000B248B949826FB04828309047AE48403858
:10062000B5490861012008730E2008700120487048
:10063000AA48B249826FA84828309047A6483C385B
:10064000AE49086100200873072008700220487036
:10065000A248AB49826FA048283090479E4838385E
:10066000A7490861002008730F2008700220487015
:100670009A48A449826F9848283090479648343861
:10068000A049086100200873062008700320487004
:1006900092489D49826F90482830904700209A499F
:1006A00048738D48303808619848486103200873C2
:1006B00008200870032048708848D0F880108648C9
:1006C0003C3088478649883183484838C0F88410D0
:1006D00082488F49C26F80483C3090477E482C3812
:1006E0008B49086141F64C5048614FF47A6088614B
:1006F000C010C8610862002008730720087000203D
:10070000487076488349C26F73483C3090477248BE
:100710002838804908613C204861282088610120F0
:10072000C8610862002008730E200870002048701D
:100730006A487949C26F68483C3090476648243817
:100740007549086169484861744888617448C8619E
:1007500008620320887000200873062008700120BA
:1007600048705E486F49C26F5B483C3090475A48BA
:1007700020386C4908616A4848614010886142F23B
:100780001070C861086203208870002008730E2072
:1007900008700120487051486349C26F4E483C3090
:1007A00090474D481C3860490861642048613220F8
:1007B00088610120C8610862002008730720087062
:1007C0000220487045485949826F43483C30904761
:1007D0004248001D55490861052008730F20087024
:1007E000032048703D48D0F880103B48503088477F
:1007F0003B49CC3138484838C0F8981037484C4904
:10080000C26F35485030904733481838484908611E
:1008100042F21070486101208861C861642008625A
:10082000012008730F200870002048702B484149B0
:10083000C26F294850309047274814383D49086115
:100840000120C86100020862042008730F200870AC
:100850000120487021483849826F1F485030904726
:100860001D481038344908610220087307200870B9
:10087000022048700820886018483049826F164866
:100880005030904714480C382C49086102200873F6
:100890000F20087002204870082088600F482849FF
:1008A000826F0D48503090470B4808382449086142
:1008B0000220087307200870032048700820886011
:1008C00010BD08E0642000F04EF8034A483A506C2E
:1008D000024A516F8847F5E7040A00200C00002007
:1008E000745E0008680A00207C0A002020F40E00D4
:1008F000C0270900A80A0020D40A0020F00A00201E
:100900000C0B0020280B0020440B0020605E000828
:10091000600B00208C0B0020B80B002020A10700EA
:10092000A0860100E40B0020100C00203C0C0020ED
:10093000580C0020840C0020B00C0020CC0C0020AF
:10094000E80C002000BF0100A0F10100FBD17047BE
:1009500000B5034602E00820FFF7F4FF1800A3F1FA
:100960000103F8D100BD00B5034603E04FF4FA508F
:10097000FFF7E8FF1800A3F10103F7D100BD10B5A0
:100980000446102C02DB14A004F074FC102C02DAD4
:100990001648005D10BD3020FCE773B504461448CE
:1009A000006800B97CBDF02C01D08DF807401148DB
:1009B000C26E0F48019900689047054615B90EA010
:1009C00004F058FC00BFEDE710B503F0ABF804F0FD
:1009D0002AF900F02DF810BD0A4153534552543AFC
:1009E00020686578203C2031360A0000815F0008CD
:1009F000080000200C0000200A4153534552543A8D
:100A000020706F73744D6573736167650A00000031
:100A100010B5002807DA0A07140E1A4A00F00F036F
:100A20001B1FD45403E00A07130E174A135410BDBA
:100A300010B51648806940F2FD11084313498861DA
:100A400000F05AFF00F036F900F01FFA00F0F2FA59
:100A500000F0ABFB00F0CDFB00F039FE00F0A9FD8B
:100A600001F029F84FF4A06001F042FCFE214FF0A4
:100A7000FF30FFF7CDFFFF216FF00100FFF7C8FF48
:100A800010BD000018ED00E000E400E0001002409E
:100A90000146F7291ED008DC7F2913D0BF290FD0CB
:100AA000DF290BD0EF2917D106E0FB2910D0FD2953
:100AB0000CD0FE2910D107E0002070470120FCE790
:100AC0000220FAE70320F8E70420F6E70520F4E720
:100AD0000620F2E70720F0E7FF20EEE70146F729BE
:100AE0001ED008DC7F2913D0BF290FD0DF290BD0FF
:100AF000EF2917D106E0FB2910D0FD290CD0FE29E3
:100B000010D107E0302070473120FCE73220FAE7AF
:100B10003320F8E73420F6E73520F4E73620F2E713
:100B20003720F0E7FF20EEE710B5FF247C4800688F
:100B300008B904F07F047B48006808B904F0BF04DA
:100B40007948006808B904F0DF047848006808B9FB
:100B500004F0EF040020764908604FF00100754969
:100B6000C1F89401FFF7F4FE6D48006808B904F07D
:100B7000F7046C48006808B904F0FB046A48006890
:100B800008B904F0FD046948006808B904F0FE04DF
:100B90000020694908604FF001006649C1F89001E2
:100BA000204610BD70B565480078012803D164481F
:100BB000C1680020884761480078002804DD5F484C
:100BC0000078401E5D490870FFF7AEFF0446FF2C19
:100BD0004CD15C48007858B15A480078401E5949B9
:100BE0000870002058490870FF205849087070BDEF
:100BF00056480078FF2803D1002053490870F6E7D3
:100C000051480078282813D150480078FFF766FF34
:100C100005462946FF20FFF7C0FE4948C16801206C
:100C200088471420454908700A204649087016E094
:100C300045480078032812DD44480078FFF728FF74
:100C400005462946FF20FFF7A8FE3D48C168012060
:100C500088471420394908700A203A490870002052
:100C600039490870FF203949087021E0364800787A
:100C7000401C3549087008460078012802D13348E5
:100C8000047015E03048007802280AD12F48007817
:100C900084420DD0FF202D49087000202A49087099
:100CA00006E029480078282802DB28202649087019
:100CB00000BF9CE708B50121254801F0B6FC3020B3
:100CC000ADF8000014208DF8030002208DF802001A
:100CD0006946204801F0DAFB0820ADF80000482002
:100CE0008DF8030002208DF802006946194801F0D2
:100CF000CDFB4FF4E050ADF8000002208DF802006B
:100D000048208DF803006946134801F0BFFB00201E
:100D1000094908604FF001000649C1F8900108BD7B
:100D20000C812142300122422C0122422801224220
:100D30009081214200802142948121429B00002029
:100D40000C0000209A00002099000020980000204C
:100D500000043000000C01400010014070B5044652
:100D600004F0F0004FF4780141EA002004F00F0194
:100D700040EA01160020784908604FF001007749E9
:100D8000C1F8A0014FF017051FE026FA05F010F09A
:100D9000010F03D001207249086002E00020704971
:100DA00008604FF01400FFF7D3FD01206A49086086
:100DB0004FF01400FFF7CCFD00206849C1F8A401F2
:100DC0001420FFF7C5FD681E05B2002DDDDA0020F6
:100DD0006449086070BD70B5044604F0F0004FF43B
:100DE0007A0141EA002004F00F0140EA01160020D8
:100DF000594908604FF001005849C1F8A0014FF06F
:100E000017051FE026FA05F010F0010F03D00120AE
:100E10005349086002E00020514908604FF0140077
:100E2000FFF796FD01204C4908604FF01400FFF7D2
:100E30008FFD00204949C1F8A4011420FFF788FD67
:100E4000681E05B2002DDDDA00204649086070BD3D
:100E500070B505460C46042D02DB43A004F00AFAE7
:100E60004549485DFFF77AFF00260BE020782028EF
:100E700002DA42A004F0FEF914F8010BFFF7ABFF11
:100E8000701CC6B2102EF1DB70BD08B54FF40070B7
:100E9000ADF8000010208DF8030002208DF802004C
:100EA00069463D4801F0F2FA00202B4908604FF4F2
:100EB0008070ADF800004FF010008DF803004FF087
:100EC00002008DF802006946334801F0DFFA002085
:100ED0002249C1F8A0018020ADF8000010208DF853
:100EE000030002208DF8020069462B4801F0CEFA7B
:100EF00000201B4908604FF04000ADF800004FF0A3
:100F000010008DF803004FF002008DF802006946D2
:100F1000214801F0BBFA00201049C1F89801642073
:100F2000FFF721FD01201D4908604FF03000FFF759
:100F300015FF0C20FFF712FF0120FFF70FFF022023
:100F4000FFF70CFF8020FFF709FF0120FFF706FFE6
:100F500013491448416108BDA40122420000224205
:100F60009C012242A00122420A4153534552543A65
:100F70002079203C20340A00915F00080A41535335
:100F80004552543A202A737472696E67203E3D20A0
:100F90002720270A0000000000100140980122428B
:100FA000510E00080C00002027480078401CC0B2F9
:100FB0002549087064283CD1002008702348007936
:100FC0003B2805DA21480079401C2049087130E0AF
:100FD00072B61F480088401C1D49088000201B492C
:100FE0000871084640793B2806DA08464079401CDB
:100FF000C1B21648417113E0002114484171807953
:10100000172806DA11488079401CC1B20F48817157
:1010100006E000210D4881718068401C0B49886002
:101020000B480088401E0004000C0949088000D1CC
:1010300062B67047002005490871002103484171DC
:1010400081718160704700009C0000200C0000202E
:101050000400002070B500245748006800B970BD36
:1010600072B656480088401C5449088052480568AA
:1010700028E005F00100012821D1514850F8340042
:10108000401E4F4941F8340019D14E4800782041A4
:1010900010F0010F07D0084600EBC4004168F020B3
:1010A000FFF77BFC04E0464901EBC4014868804738
:1010B0000120A0404049096881433F4801606D0814
:1010C000601CC4B2002DD4D13C480088401E0004EE
:1010D000000C3A49088000D162B600BFBFE730B5C6
:1010E00003460C4672B635480088401C334D2880B4
:1010F00000212FE030480068C84010F0010F27D1D0
:101100002F4840F8314000EBC10042603BB1012064
:1011100088402C4D2D7828432A4D287006E0012068
:101120008840284D2D788543264805700120884049
:10113000214D2D682843204D286020480088401EFE
:101140000004000C1D4D288000D162B6084630BD59
:10115000481CC1B20829CDDB18480088401E000495
:10116000000C164D288000D162B6FF20EFE710B5C5
:101170000446082C02DB14A004F07CF872B60F4879
:101180000088401C0D4908800120A0400A490968D8
:1011900081430948016009480088401E0004000C92
:1011A0000649088000D162B610BD0D490D48C162E4
:1011B0000D49016370470000A000002004000020DA
:1011C000040D0020A40000200A4153534552543A14
:1011D000206964203C2054696D657253756D0A0066
:1011E000DF1000080C0000206F1100080B49086098
:1011F000704708B50220ADF8000010208DF80300FC
:1012000002208DF802006946054801F03FF90020F0
:101210000249086003490448C16008BD84012142B5
:1012200000080140ED1100080C00002010B501F08D
:1012300068FC352001F0FEFE10BD10B501F06DFC1C
:1012400010BD10B5E54801F0A2FC0446042C02D004
:10125000E3A004F00FF810BD02461346002115E08C
:10126000E848006850F83100984207D1E548006826
:1012700000EBC1004068186001207047E148006839
:1012800050F83100401C00D1F7E7491C8029E7D312
:101290000020F2E72DE9F0410646354616B9002058
:1012A000BDE8F081002423E0D648006850F83400FF
:1012B000A84215D1D348006800EBC40040682968F3
:1012C000884201D10120EBE7FFF7B0FFCD49096863
:1012D00001EBC400002101F02AFD0746FFF7ADFF36
:1012E000C848006850F83400401C00D102E0641C7B
:1012F000802CD9D300BF802C01D10020D0E7FFF78C
:1013000095FFC049096801EBC400294601F00FFDB3
:101310000746BC4A2968126802EBC402101D01F09E
:1013200006FD0746FFF789FF042F01D10120B7E72B
:101330000020B5E71CB5014600231A461846802355
:10134000ADF80430002022E0AE4B1B6853F830307B
:101350005B1C09D1ADF80200ADF80020009B0B60CA
:10136000BDF804308B801CBDA64B1B6853F8303091
:101370005BB1A44B1B6803EBC0035B68A14C246802
:1013800054F830402360531C9AB2431C98B2802812
:10139000DADBADF80200ADF80020009B0B60BDF871
:1013A00004308B8000BFDEE733B5ADF5017D00244E
:1013B000002500BF0FE09348006850F8340040B1AA
:1013C0009048006850F8340001A941F82500681CD5
:1013D00085B2601C84B2BDF80602A042EBDCFFF7C8
:1013E00025FFFFF72EFF002406E001A951F8240095
:1013F000FFF750FF601C84B2BDF80402A042F4DC89
:10140000FFF71BFF0DF5037D30BD30B54FF4406392
:101410007D4C63817D4B23601A4600210DE01378DB
:10142000FF2B08D1784B5A601C4621811D4638CDD0
:1014300080E8380030BD521C491CB1F5406FEED336
:10144000714B1B68704C636000232381254638CDA7
:1014500080E8380000BFEDE770B500240BE06B4971
:1014600001EB842001F093FB0546042D02D05CA023
:1014700003F000FF641C032CF1D370BD10B50246CD
:1014800062490878FF2801D161A010BD1AB95F48F0
:101490005D4C2060F9E7501C18D15B480368016877
:1014A00000BF11F8014B002CFBDC087800B9491C87
:1014B0000878FF2802D04948814203D95348524C4A
:1014C000206001E0504801601846DEE7002A1FDD79
:1014D00010E00878FF2801D14DA0D6E700BF11F831
:1014E000014B002CFBDC491E00BF11F8014B002C06
:1014F000FBD0491E1000A2F10102EAD10878FF28B2
:1015000002D03648814201D941A0BEE70846BCE777
:1015100041A0BAE70FB4F0B59BB001AE002503E0DF
:10152000002026F8020B6D1C322DF9DB21A81A9041
:1015300001A81A9A209903F0ADFE044600201A90E3
:10154000012C03DA1BB0F0BC5DF814FB641C14F032
:10155000010F00D0641C2C4800892044B0F5406F76
:101560000ADB294800892044B0F5406F02DB2EA039
:1015700003F080FE0020E5E7671001AEFFF756FE9E
:1015800000250BE03188204A506801F000FC1E481D
:101590004068801C1C494860B61C6D1CBD42F1DBD4
:1015A000FFF74BFE184800892044174908810120A5
:1015B000C8E7264926484163264981632649C16315
:1015C0002649016426494164264981642649C1644B
:1015D00026490165264941657047000000FC000866
:1015E0000A4153534552543A207374617475732001
:1015F0003D3D20464C4153485F434F4D504C455470
:10160000450A0000A8000020440D002000F000085A
:101610004E756C6C0A000000417267756D656E74E2
:101620004572726F720A00000A4153534552543A90
:10163000204C6F672E53697A65202B206C656E20D5
:101640003C204C6F6753706163650A0035130008D6
:101650000C000020431200085912000895120008DF
:10166000A91300080B140008591400087D14000881
:10167000151500083A4A42F82010704710B500BF0F
:101680000221384801F0E8FE0028F9D0354801F081
:101690001BFE3349344A127851F822100880324830
:1016A0000078401CC0B230490870032801DD0020DA
:1016B0000870072301222C4800780A30C1B229485B
:1016C00001F09BFD0121274801F06BFD10BD00B525
:1016D00087B001214FF4047001F08CF94FF4004001
:1016E00001F0EFF80F20ADF8180000208DF81B0076
:1016F00006A91E4800F0CAFE1A4801F0BFFC0020EF
:1017000001908DF808008DF809004FF460200390D7
:101710000020049001208DF8140001A9114801F067
:10172000D4FC01210F4801F0FCFC0E4801F01BFD28
:1017300000BF0C4801F01CFD0028FAD1094801F057
:1017400021FD00BF074801F022FD0028FAD1012148
:10175000044801F026FD06490648016107B000BDB6
:10176000AC00002000240140BC000020001001401B
:10177000751600080C000020704701468B48408A0F
:10178000B0F57A7F01D10020704772B68848008892
:10179000401C874A108085488068017083488068B3
:1017A000401C824A90601046408A401C508210467D
:1017B00080685268904203D17C4800687B4A906000
:1017C0007B480088401E0004000C794A108000D13C
:1017D00062B60120D8E770B504460D460A2C05D143
:1017E00000BF0D20FFF7C9FF0028FAD000BFE0B20C
:1017F000FFF7C3FF0028FAD0204670BD10B540F2B5
:1018000025516C4800F031FD38B16A4800F0ADFC5C
:10181000C4B2204668490968884710BD6348408AB9
:1018200000B970476348008810F0400F00D1F8E716
:101830005E48C06800785F49091D08805B48C06841
:10184000401C5A49C8600846408A401E48820846E3
:10185000C0684968884203D1544800685349C86049
:1018600000BFDEE710B5012240F22551514800F0DB
:1018700014FC01214F4800F004FC10BD10B50022FB
:1018800040F225514B4800F008FC0021494800F087
:10189000F8FB10BD48490860704770B504460D4616
:1018A0004DB103E014F8010BFFF767FF2800A5F125
:1018B0000105F7D10DE009E020780A2802D10D20BA
:1018C000FFF75BFF14F8010BFFF757FF20780028A4
:1018D000F2D170BD39483549086000F57A7048602A
:1018E00008460068886008460068C8604FF47A704F
:1018F000088200204882704700B587B0012144F279
:10190000050001F077F84FF40070ADF818000320DF
:101910008DF81A0018208DF81B0006A9284800F041
:10192000B5FD4FF48060ADF8180004208DF81B0061
:1019300006A9234800F0AAFD25208DF80400032005
:101940008DF805008DF8060001208DF8070001A82C
:1019500000F0D3FC4FF4E13002900020ADF80C0011
:10196000ADF80E00ADF81000ADF814000C20ADF885
:10197000120002A90F4800F0F8FA012240F22551A6
:101980000C4800F08AFB01210A4800F07AFBFFF7BF
:10199000A1FF0C490C4881610C49C1610C490162ED
:1019A0000C4941620C49816207B000BD381100202A
:1019B0000400002000380140C0000020500D00202D
:1019C00000080140651800080C0000207D18000880
:1019D000951800087B1700089B180008704770B521
:1019E00005460C4614B9A6A003F044FC72B6AF48F5
:1019F0000088401CAD490880BDB3012D1BD0022DCD
:101A00004ED1AB480078082801D1002070BDA8480D
:101A100001780078401CA64A1070A64840F8214082
:101A2000A2480088401E0004000CA049088000D194
:101A300062B60120EAE7A0480078042801D100201E
:101A4000E4E79D4801780078401C9B4A10709B4851
:101A500040F8214095480088401E0004000C93493E
:101A6000088000D162B60120D0E7FFE794480078F3
:101A7000022801D10020C9E7914801780078401C74
:101A80008F4A10708F4840F8214088480088401ED7
:101A90000004000C8549088000D162B60120B5E73A
:101AA00082480088401E0004000C8049088000D154
:101AB00062B60020AAE730B583498448816584482E
:101AC000006842F21072B0FBF2F1B1F1807F00D3F6
:101AD0001DE021F07F40401E4FF0E0225061501782
:101AE0000F22002807DA13071D0E7A4B00F00F04AF
:101AF000241F1D5503E013071C0E774B1C5400BF19
:101B000000204FF0E02290610720106100BF30BD3F
:101B100010B572480078401CC0B270490870642843
:101B200001D1002008706749086880476549486806
:101B300080476A480078642875D2DFE800F0327583
:101B40003F794C7D598166853389408D4D915A9BF3
:101B5000679B349B419B4E9B5B9B689B359B429B49
:101B60004F9B5C9B699B369B439B509B5D9B6A9BF9
:101B7000379B449B519B5E9B6B9B389B459B529B29
:101B80005F9B6C9B399B469B539B609B6D9B3A9BD9
:101B9000479B549B619B6E9B3B9B489B559B6295CF
:101BA0006F9800BF00BF00BF00BF00BF00BF00BFF5
:101BB00000BF00BF4149086880475CE000BF00BF2C
:101BC00000BF00BF00BF00BF00BF00BF00BF3B4958
:101BD000486880474FE000BF00BF00BF00BF00BFA4
:101BE00000BF00BF00BF00BF34498868804742E0A3
:101BF00000BF00BF00BF00BF00BF00BF00BF00BFED
:101C000000BF2E49C868804735E000BF00BF00BF55
:101C100000BF00BF00BF00BF00BF00BFFFF7FEFD59
:101C2000FFF718FA27E025E022490868804722E0FC
:101C30002049486880471EE01E49886880471AE0AE
:101C40001C49C868804716E01A490869804712E0B5
:101C50001849486980470EE01649886980470AE0BC
:101C60001449C869804706E0FFF79EF903E0FEF7D4
:101C700099FF00E000BF00BFFFF700FD10BD0000AE
:101C80000A4153534552543A20726567697374652B
:101C90007246756E6374696F6E20213D20286675EB
:101CA0006E6374696F6E29300A0000000400002022
:101CB000FC000020DC000020FD000020CC00002003
:101CC000FE000020C4000020DF1900080C000020E6
:101CD0000001002018ED00E000E400E0FF0000201B
:101CE000704700BFFEE700BFFEE700BFFEE700BF92
:101CF000FEE770477047000000210020674A126825
:101D000042F48032654B1A6000BF644A126802F4E4
:101D10000030491C10B9B1F5A06FF6D15F4A1268C6
:101D200012F4003F01D0012000E00020012842D140
:101D30005B4A126842F01002594B1A601A46126848
:101D400022F003021A601A46126842F002021A6078
:101D5000524A5268514B5A601A4652685A601A46A3
:101D6000526842F480625A601A46526822F47C1229
:101D70005A601A46526842F4E8125A601A461268CB
:101D800042F080721A6000BF444A126812F0007F6D
:101D9000FAD0424A526822F00302404B5A601A4677
:101DA000526842F002025A6000BF3C4A526802F098
:101DB0000C02082AF9D1704710B5FFF79DFF10BD3E
:101DC00010B53648006840F0010034490860084604
:101DD0004068344908403149486008460068324943
:101DE00008402E4908600846006820F480200860FA
:101DF0000846406820F4FE0048604FF41F008860E9
:101E0000FFF7DAFF4FF000602849086010BD10B5F9
:101E1000002100200022214B5B6803F00C0121B15E
:101E2000042906D0082928D107E0214B214C236042
:101E300027E01F4B1F4C236023E0184B5B6803F423
:101E40007010164B5B6803F48032022303EB904062
:101E500022B9194B4343174C23600DE00F4B5B68CD
:101E600013F4003F04D0144B4343124C236003E0AF
:101E70000F4B43430F4C236003E00D4B0D4C23608D
:101E800000BF00BF054B5B68C3F303130B4CE15C61
:101E9000084B1B68CB40074C236010BD001002406C
:101EA000002002400000FFF8FFFFF6FE08ED00E012
:101EB00000127A000001002000093D00040100200A
:101EC0000648804706480047FEE7FEE7FEE7FEE7D4
:101ED000FEE7FEE7FEE7FEE7FEE7FEE7C11D0008BE
:101EE000ED00000810B50446FC48844209D10121E8
:101EF000880300F099FD00214FF4804000F094FD2C
:101F000032E0F748844209D10121480400F099FDEC
:101F100000214FF4003000F094FD25E0F1488442A8
:101F200009D10121880400F08CFD00214FF48020AC
:101F300000F087FD18E0EC48844209D10121C80473
:101F400000F07FFD00214FF4002000F07AFD0BE04F
:101F5000E648844208D10121080500F072FD002105
:101F60004FF4801000F06DFD10BD2DE9F04786B0F4
:101F700005460E460024A24600BFA1460027B089B0
:101F800000B100BF2F462C8A4CF6FF700440F08849
:101F900004432C82AC894EF6F3100440B08831899A
:101FA0000843718908430443AC81AC8A4FF6FF4073
:101FB0000440B0890443AC8201A800F0AEFCC748DD
:101FC000874202D1DDF810A001E0DDF80CA0A8895D
:101FD00010F4004F08D00AEBCA0000EB0A10316879
:101FE0004900B0FBF1F807E00AEBCA0000EB0A1069
:101FF00031688900B0FBF1F86420B8FBF0F004010F
:102000002009642101FB1089A88910F4004F08D031
:10201000322000EBC900B0FBF1F000F007000443F0
:1020200008E0322000EB09106421B0FBF1F000F071
:102030000F0004432C8106B0BDE8F0874FF4165121
:10204000016000218180C18001810C21418100213A
:102050008181704710B502460020108A4FF2FF03BD
:1020600018400B884C8823438C882343CC88234317
:102070001843108210BD0021018041808180C18001
:10208000704721B1828942F40052828104E0828942
:102090004DF6FF731A4082817047F0B50346002465
:1020A000002600250020A1F510676A3F00D100BF7F
:1020B0001846C1F3421401F01F06012707FA06F57E
:1020C000012C01D10C3004E0022C01D1103000E0D1
:1020D00014301AB107682F43076002E00768AF4366
:1020E0000760F0BD10B51AB1838A0B43838204E008
:1020F000838ACC43A4B22340838210BD028A4FF668
:10210000F0731A400282028A0A430282704782896F
:102110004FF2FF731A40828182890A43828170479D
:1021200021B1828942F00202828104E082894FF665
:10213000FD731A4082817047028A4FF6DF731A409E
:102140000282028A0A430282704721B1028A42F463
:102150008042028204E0028A4BF6FF731A40028238
:102160007047C1F308028280704701468888C0F337
:1021700008007047818941F0010181817047028B1D
:10218000D2B20283028B42EA012202837047028BA1
:1021900002F47F420283028B0A430283704721B11B
:1021A000828A42F02002828204E0828A4FF6DF7344
:1021B0001A408282704721B1828A42F010028282E4
:1021C00004E0828A4FF6EF731A408282704721B191
:1021D000828A42F00802828204E0828A4FF6F77314
:1021E0001A408282704721B1828942F40042828182
:1021F00003E08289C2F30E028281704721B1828A94
:1022000042F40062828204E0828A4FF2FF731A4035
:1022100082827047828A4FF6FB731A408282828ADA
:102220000A438282704721B1828A42F0020282828E
:1022300004E0828A4FF6FD731A408282704702469C
:102240000020B1F5007F00D100BF13880B4201D000
:10225000012000E00020704701F40072B2F5007F19
:1022600000D100BFCA430280704770B50246002407
:10227000002300250020A1F510666A3E00D100BFB2
:10228000C1F3421501F01F03012606FA03F3012DE5
:1022900002D19689334006E0022D02D1168A3340DE
:1022A00001E0968A33400C12012606FA04F41688DF
:1022B000344013B10CB1012000E0002070BD10B516
:1022C00000220023A1F510646A3C00D100BF0A126D
:1022D00001249440A3B2DC43048010BD00380140C7
:1022E0000044004000480040004C004000500040C6
:1022F00031490143314A1160704770B50021002314
:102300000F22C4780CB32D4C246804F4E064C4F5A7
:10231000E064210AC1F10403CA40447804FA03F1DD
:102320008478144021430901254C0678A15504788E
:1023300004F01F050124AC4005786D114FF0E02634
:1023400006EB8505C5F8004109E0047804F01F0597
:102350000124AC401B4D0678761145F8264070BD2F
:10236000194A0A400243154B1B1F1A60704739B1C6
:10237000124A121D12680243104B1B1D1A6006E020
:102380000E4A121D126882430C4B1B1D1A607047C7
:10239000042808D14FF0E021096941F004014FF011
:1023A000E022116107E04FF0E021096921F004010A
:1023B0004FF0E022116170470000FA050CED00E0DB
:1023C00000E400E080E100E080FFFF1F10B504465C
:1023D000CA48844208D10121042000F025FB0021D5
:1023E000042000F021FB46E0C548844208D10121C9
:1023F000082000F019FB0021082000F015FB3AE04E
:10240000C048844208D10121102000F00DFB0021BA
:10241000102000F009FB2EE0BB48844208D10121C6
:10242000202000F001FB0021202000F0FDFA22E036
:10243000B648844208D10121402000F0F5FA00217D
:10244000402000F0F1FA16E0B148844208D10121A1
:10245000802000F0E9FA0021802000F0E5FA0AE08F
:10246000AC48844207D10121801500F0DDFA00213B
:10247000A01500F0D9FA10BD10B50121084600F0F2
:10248000D3FA0021012000F0CFFA10BD2DE9F04170
:10249000024600250026002000230024002791F892
:1024A00003C00CF00F0591F803C01CF0100F03D00F
:1024B00091F802C04CEA0505B1F800C01CF0FF0F0E
:1024C00031D0146800202BE04FF0010C0CFA00F31F
:1024D000B1F800C00CEA03069E4220D183004FF001
:1024E0000F0C0CFA03F7BC4305FA03FC4CEA040496
:1024F00091F803C0BCF1280F06D14FF0010C0CFA83
:1025000000FCC2F814C00AE091F803C0BCF1480F07
:1025100005D14FF0010C0CFA00FCC2F810C0401CB1
:102520000828D1D31460B1F800C0BCF1FF0F34DD2E
:10253000546800202EE000F1080C4FF0010808FA62
:102540000CF3B1F800C00CEA03069E4221D18300CF
:102550004FF00F0C0CFA03F7BC4305FA03FC4CEAEE
:10256000040491F803C0BCF1280F05D100F1080C58
:1025700008FA0CF8C2F8148091F803C0BCF1480FB7
:1025800007D100F1080C4FF0010808FA0CF8C2F866
:102590001080401C0828CED35460BDE8F0814FF66F
:1025A000FF710180022181700421C17070470246D1
:1025B000002093680B4201D0012000E0002070470A
:1025C0000146886880B2704702460020D3680B42FB
:1025D00001D0012000E0002070470146C86880B2A9
:1025E000704701617047416170470AB1016100E0C5
:1025F00041617047C16070474FF480320A43826185
:102600008161826182698269704702460020424B83
:1026100018684FF68073184040EA021008433E4B9A
:10262000186070473D49C8617047F0B50A460023FD
:1026300000240021002500F00046B6F1004F02D131
:10264000354EF16901E0344E7168C0F3034583B241
:1026500000F44016B6F5401F08D121F070612E4EEF
:10266000766826F070662C4F7E6012E000F48016CB
:10267000B6F5801F06D1032606FA05F4A14341F002
:10268000706106E0460D360103FA06F6B14341F0EB
:10269000706122B1460D360103FA06F6314300F0AF
:1026A0000046B6F1004F02D11B4EF16101E01A4E17
:1026B0007160F0BD30B500228B071C0F0F2303FAA9
:1026C00004F2154B08338C1053F824309343124C0A
:1026D00008348D1044F8253023468C1053F82430EC
:1026E0008C07240F00FA04F423430B4C08348D109C
:1026F00044F8253030BD0A490860704700080140A1
:10270000000C01400010014000140140001801407D
:10271000001C014000200140000001400000204258
:10272000DC002042DC48006840F00100DA49086023
:1027300008464068D9490840D749486008460068BB
:10274000D7490840D44908600846006820F4802032
:1027500008600846406820F4FE0048604FF41F00FF
:1027600088607047CC49096821F48031CA4A1160F9
:102770001146096821F480211160B0F5803F03D033
:10278000B0F5802F0ED106E0C349096841F48031CD
:10279000C14A116007E0C049096841F4A021BE4A5E
:1027A000116000E000BF00BF704710B50146002275
:1027B000002300204A11012A02D1B74C236806E009
:1027C000022A02D1B44C236A01E0B34C636A01F0DF
:1027D0001F02012494401C4201D0012000E000208F
:1027E00010BD70B500240025002600BF3120FFF782
:1027F000DCFF0646641CB4F5A06F01D0002EF5D0B6
:102800003120FFF7D2FF08B1012500E0002528465E
:1028100070BD01460020A04A106820F0F80040EA90
:10282000C100106070479F49086070470246002051
:10283000994B586820F47C1042EA01031843964BE8
:102840005860704797490866704701460020924AD1
:10285000506820F003000843506070478E4840687D
:1028600000F00C007047014600208B4A506820F0B1
:10287000F00008435060704701460020864A5068C7
:1028800020F4E06008435060704701460020824A0F
:10289000506820F4605040EAC1005060704729B190
:1028A0007D4A527A02437C4B5A7206E07A4A527A47
:1028B000C343DBB21A40784B5A7270477A490860BA
:1028C000704701460020744A506820F44040084395
:1028D000506070470021754A11706F4A82F82010CD
:1028E000012802D0042808D103E001216F4A1170A9
:1028F00004E005216D4A117000E000BF00BF704781
:102900006B49086070476449096A0143624A116271
:102910007047674944390860704730B5002100228C
:10292000002400235C4D6D6805F00C0121B10429E1
:1029300005D0082923D105E05E4D056022E05D4DFC
:1029400005601FE0544D6D6805F47012524D6D68BE
:1029500005F48034022505EB92421CB9564D5543CF
:1029600005600BE04C4D6D6815F4003F03D0524DEF
:102970005543056002E04F4D5543056002E04D4D63
:10298000056000BF00BF444D6D6805F0F001090906
:102990004A4D6B5C0568DD4045603F4D6D6805F450
:1029A000E061090A454D6B5C4568DD4085603A4D44
:1029B0006D6805F46051C90A404D6B5C4568DD40A7
:1029C000C560354D6D6805F44041890B3C4D6B5C2D
:1029D000C568B5FBF3F5056130BD29B12E4A5269D2
:1029E00002432D4B5A6104E02B4A526982432A4B21
:1029F0005A61704729B1284A92690243264B9A616D
:102A000004E0254A92698243234B9A61704729B1B9
:102A1000214AD2690243204BDA6104E01E4AD2699E
:102A200082431D4BDA61704729B11B4AD2680243C9
:102A3000194BDA6004E0184AD2688243164BDA6018
:102A4000704729B1144A12690243134B1A6104E01A
:102A5000114A12698243104B1A6170471449403978
:102A6000086070470F49C86470470B49C8717047C8
:102A70000948406A40F08070074948627047014643
:102A80000020054A92680A4201D0012000E000209F
:102A90007047014988727047001002400000FFF83B
:102AA000FFFFF6FE00004242D800424220100240E2
:102AB0008004424200127A0000093D001401002007
:102AC0002401002001460020FE4A106800F0380072
:102AD000084310607047FB49096821F00801F94A72
:102AE000116011460968014311607047F549096892
:102AF00021F01001F34A1160114609680143116089
:102B00007047F148EF494860F04848607047EE4828
:102B1000EC494860ED4848607047EA48006940F079
:102B20008000E84908617047E648006940F080008D
:102B3000E449086170470420E249C96801F00101D5
:102B4000012901D101200EE0DE49C96811F0040F0E
:102B500001D0022007E0DB49C96811F0100F01D055
:102B6000032000E00420704700B502460423FFF76D
:102B7000E2FF034603E0FFF7DEFF0346521E012B90
:102B800001D1002AF7D102B90523184600BD30B59E
:102B9000044604254FF43020FFF7E6FF0546042DD8
:102BA00017D1C848006940F00200C64908610846CC
:102BB0004461006940F0400008614FF43020FFF7A5
:102BC000D3FF0546BF48006941F6FD710840BD4985
:102BD0000861284630BD10B504244FF43020FFF7BB
:102BE000C3FF0446042C16D1B648006940F0040027
:102BF000B44908610846006940F0400008614FF49C
:102C00003020FFF7B1FF0446AE48006941F6FB7182
:102C10000840AC490861204610BD00B502460423B7
:102C2000FFF789FF034603E0FFF785FF0346521EC7
:102C3000012B01D1002AF7D102B90523184600BDA6
:102C400010B504244FF43020FFF7E7FF0446042CAE
:102C500016D19C48006940F004009A490861084672
:102C6000006940F0400008614FF43020FFF7D5FFC5
:102C700004469448006941F6FB7108409149086197
:102C8000204610BD00208F49C96911F0020F01D004
:102C9000012000E00020704730B5A5250424FFF78F
:102CA000F1FF00B100254FF43020FFF75DFF04462F
:102CB000042C3AD184488349886084488860084657
:102CC000006940F0200008610846006940F04000BB
:102CD00008614FF43020FFF747FF0446042C1BD156
:102CE0007848006941F6DF71084076490861084676
:102CF000006940F01000086175480580E002FFF7A8
:102D000033FF0446052C10D06E48006941F6EF7180
:102D100008406C49086108E0052C06D06948006944
:102D200041F6EF71084067490861204630BDF0B5B3
:102D300004460D4604260027F002FFF715FF06465D
:102D4000042E22D15F48006940F001005D4908610E
:102D50002580F002FFF708FF0646042E0ED1A71CBF
:102D6000280C3880F002FFF7FFFE06465548006940
:102D700041F6FE7108405349086106E05148006978
:102D800041F6FE7108404F4908613046F0BD70B50C
:102D900004460D460426F002FFF7E6FE0646042E22
:102DA00011D14848006940F001004649086125807A
:102DB000F002FFF7D9FE06464248006941F6FE716F
:102DC000084040490861304670BD70B505460E4662
:102DD0000424E002FFF7C8FE0446042C17D13A4849
:102DE00038498860394888600846006940F010001A
:102DF00008612E80E002FFF7B7FE0446052C06D0DE
:102E00003048006941F6EF7108402E4908612046BC
:102E100070BD2DE9F04304464FF6FF763746B046C5
:102E2000B1460425E443E6B2C4F30727C4F30748D8
:102E30004FEA1469E802FFF797FE0546042D40D1DA
:102E4000214820498860214888600846006940F090
:102E500010000861FF2E06D01D4808300680E802E9
:102E6000FFF782FE0546042D08D1FF2F06D0184833
:102E70000A300780E802FFF777FE0546042D0AD1E5
:102E8000B8F1FF0F07D012480C30A0F80080E8021C
:102E9000FFF76AFE0546042D0AD1B9F1FF0F07D0EE
:102EA0000B480E30A0F80090E802FFF75DFE0546E3
:102EB000052D06D00348006941F6EF71084001492D
:102EC000086107E00020024023016745AB89EFCD90
:102ED00000F8FF1F2846BDE8F08330B505460424FE
:102EE0004FF43020FFF740FE0446042C41D15F48E8
:102EF0005F4988605F4888600846006940F02000AC
:102F000008610846006940F0400008614FF4302035
:102F1000FFF72AFE0446042C22D15548006941F6E9
:102F2000DF710840524908610846006940F010000E
:102F300008611DB100205049088002E0A5204E49DB
:102F400008804FF43020FFF70FFE0446052C10D008
:102F50004748006941F6EF7108404549086108E0BB
:102F6000052C06D04248006941F6DF71084040490F
:102F70000861204630BDF0B505460E4617460424CC
:102F80003A483B4988603B488860E002FFF7ECFD27
:102F90000446042C19D13648006940F01000344929
:102FA000086147F0F800304328433349891C088002
:102FB000E002FFF7D9FD0446052C06D02C48006935
:102FC00041F6EF7108402A4908612046F0BD2848C3
:102FD000C069800870472648006A7047002024496D
:102FE000096811F0200F01D0012000E00020704797
:102FF00029B11F4A126902431D4B1A6104E01C4AA1
:10300000126982431A4B1A61704701460020012958
:1030100008D1174AD26912F0010F01D0012008E04F
:10302000002006E0124AD2680A4201D0012000E0E6
:10303000002070470E49C860704704200C49C968D9
:1030400001F00101012901D101200EE00849C96800
:1030500011F0040F01D0022007E00549C96811F002
:10306000100F01D0032000E00420704723016745C2
:1030700000200240AB89EFCD00F8FF1F10B50446D9
:10308000F948844208D101214015FFF7CDFC002109
:103090006015FFF7C9FC17E0F448844208D101210C
:1030A0000015FFF7C1FC00212015FFF7BDFC0BE068
:1030B000EF48844208D10121C803FFF7B5FC002185
:1030C0004FF40040FFF7B0FC10BD30B502460020C1
:1030D00000235068E74C20400D790C6844EA052431
:1030E000204350609068E44C2040D1E902542C43C6
:1030F0004D7944EA450420439060D06A20F4700082
:103100000C7C641EE4B2234340EA0350D06230BD1D
:1031100000210160017141718160C1600121017470
:10312000704721B1826842F00102826003E0826848
:1031300022F001028260704721B1826842F48072FD
:10314000826003E0826822F480728260704710B56A
:103150000023CBB21AB144681C43446002E04468C7
:103160009C43446010BD816841F008018160704754
:10317000014600208A6812F0080F01D0012000E00B
:1031800000207047816841F004018160704701466A
:1031900000208A6812F0040F01D0012000E0002016
:1031A000704721B1826842F4A002826003E0826825
:1031B00022F4A00282607047014600208A6812F45F
:1031C000800F01D0012000E00020704710B50A46B2
:1031D00000210023416821F46041531E41EA43313C
:1031E000416010BD21B1426842F40062426003E0D8
:1031F000426822F4006242607047F0B504460D4612
:1032000000200021092D11DDE068A5F10A0606EB7A
:103210004607072606FA07F18843A5F10A0606EBDA
:10322000460603FA06F10843E0600CE0206905EB6E
:103230004507072606FA07F1884305EB450603FA1A
:1032400006F108432061072A0FDA606B561E06EB71
:1032500086071F2606FA07F18843561E06EB8606E8
:1032600005FA06F10843606322E00D2A0FDA206BAD
:10327000D61F06EB86071F2606FA07F18843D61FDE
:1032800006EB860605FA06F10843206310E0E06AC3
:10329000A2F10D0606EB86071F2606FA07F1884302
:1032A000A2F10D0606EB860605FA06F10843E06278
:1032B000F0BD21B1826842F48012826003E082682E
:1032C00022F48012826070470146C86C80B2704759
:1032D00065484C300068704721B1426842F4806212
:1032E000426003E0426822F480624260704721B18C
:1032F000426842F48052426003E0426822F4805205
:10330000426070470A460021816821F4E041114380
:103310008160704721B1826842F40042826003E01C
:10332000826822F400428260704721B1826842F4D0
:103330000212826003E0826822F402128260704707
:10334000014600208A6812F4001F01D0012000E02D
:1033500000207047F0B504461546002000220026E4
:10336000092911DDE068A1F10A0707EB470C0727DF
:1033700007FA0CF29043A1F10A0707EB470703FA9B
:1033800007F21043E0600CE0206901EB410C0727D5
:1033900007FA0CF2904301EB410703FA07F21043DE
:1033A0002061A06BC0F30156EF1C06F1010CA7EBE6
:1033B0000C0707EB870C1F2707FA0CF29043EF1C52
:1033C00006F1010CA7EB0C0707EB870701FA07F2E0
:1033D0001043A063F0BD10B50A4600210023816BA5
:1033E00021F44011531E41EA0351816310BD10B511
:1033F000002303460B441A6010BD02460023134607
:1034000001F128000344186880B270470A46002181
:1034100041681A4B19401143416070474162826212
:1034200070470A460021416821F01F0111434160A5
:10343000704740B10C490831096841F400010A4A5B
:103440000832116007E008490831096821F40001D9
:10345000054A0832116070470246002013680B428B
:103460000ED001200DE000000024014000280140A2
:10347000003C0140FFFEF0FFFDF7F1FFFFFD3FFFC5
:1034800000207047CA430260704770B502460020B2
:10349000002300240B125568CEB205EA0604156815
:1034A0001D4202D00CB1012000E0002070BD0022BE
:1034B0000A12D3430360704702464FF080700860E1
:1034C000081F014602606FF00103081F01460360F8
:1034D0004FF01233081F014603604FF00333081FFB
:1034E000014603604FF00233081F014603605B1082
:1034F000081F014603600023081F014603604FF0C8
:103500001133081F014603604FF01033081F0146B6
:1035100003604FF00933081F014603604FF0083382
:10352000081F014603604FF00733081F0146036080
:103530004FF00633081F014603604FF00533081FA4
:10354000014603604FF00433081F0146036008463C
:1035500070470146FE4A127802EB8202FD4B03EBF4
:1035600082000160002242608260C2600274F84AF8
:1035700012784274F64A137801229A40F64B1B786F
:103580001A43F54B1A70F24A1278521CF04B1A701B
:10359000704710B572B6F1480088401CEF490880AA
:1035A000EF480078C8B9EF480078B0B9EE48EA496A
:1035B0000978405CED49087008460078EC490978C4
:1035C00088420AD0E948007800EB8000E14901EB2D
:1035D0008000E849086000F0D9FAE0480088401E01
:1035E0000004000CDD49088000D162B610BD10B5A2
:1035F000DB480078FF2802DBDFA001F03BFEE74854
:103600000078012804D1D6480078401CD4490870BD
:1036100010BD10B5E1480078012834D172B6CF480A
:103620000088401CCD490880CD480078002804DD82
:10363000CB480078401ECA490870C9480078C8B90C
:10364000C8480078B0B9C848C3490978405CC74940
:10365000087008460078C649097888420AD0C348ED
:10366000007800EB8000BB4901EB8000C149086095
:1036700000F08CFAB9480088401E0004000CB749DD
:10368000088000D162B610BD70B50025FFF7AFFF0E
:10369000C2480078012831D12EE005EB8500AD4904
:1036A00001EB800472B6AD480088401CAB4908802D
:1036B000BB480068401CBA490860E06888B1E0680F
:1036C000401EE0600DD1207C10F0080F07D10120D2
:1036D000A840A149097808439F49087001E00120EA
:1036E000E060681CC5B29D480088401E0004000CC4
:1036F0009A49088000D162B6022DCEDBFFF789FF20
:1037000070BD10B592480078022802D0A5A001F043
:10371000B1FDAD480078012802D0ACA001F0AAFDAF
:10372000B3480078012802D0B2A001F0A3FDBA4846
:10373000BA49826D0120904798480078C0B98A48FC
:1037400085490978405C89490870084600788849AD
:1037500008700846007800EB80007E4901EB80008D
:103760008449086008460068AD49086000F000FA26
:1037700010BD70B504460D4672B678480088401CEE
:103780007649088029462046FFF796FE06463046D1
:10379000FFF7DFFE71480088401E0004000C6F49EF
:1037A000088000D162B670BD30B502460B46904C21
:1037B000247804EB84049B4D05EB84010A6002EB42
:1037C00083044C608A60CA600B8200244C82884C5F
:1037D0002478641C864D2C707B4C247804EB4404C4
:1037E000914D05EB84000224047000244480416064
:1037F0000472754C2478641C734D2C7030BD2DE917
:10380000F04105460F465648007810B187A001F0F8
:1038100031FD72B651480088401C504908806C68E0
:10382000608A002818DDE168081DE0600E68608A83
:10383000401E60826168E068884201D12068E060D3
:1038400046480088401E0004000C4449088000D10E
:1038500062B63046BDE8F08171480068007C40F0F7
:1038600004006F49096808746D480068C7606C48B7
:10387000006845603E480178012088403649097853
:10388000814335480170287A39490A7801219140ED
:103890000843287231480088401E0004000C2F495C
:1038A000088000D162B6FFF774FE72B62B4800881C
:1038B000401C2A4908805A480068866806B9A7B99A
:1038C00000205749096888605549096808745449B7
:1038D0000968486021480088401E0004000C1F4908
:1038E000088000D162B63046B4E7287A20490A78C9
:1038F00001219140884328720020494909680874D1
:1039000047490968486015480088401E0004000CBB
:103910001249088000D162B600209BE72DE9F041F2
:103920000646884672B60D480088401C0B49088040
:10393000307A58B1307A0C490F5C307A0121B940A5
:103940008843307207EB870002497FE0A0E0000067
:103950002F0100204C1100202E0100200400002027
:103960002D0100202C010020955F0008340100206B
:10397000330100203C0100200A4153534552543A80
:1039800020496E746572727570744E657374696ED9
:1039900067203C203235350A00000000320100204B
:1039A000280100200A4153534552543A2054617370
:1039B0006B436F756E746572203D3D205461736B6F
:1039C00053756D0A00000000300100200A41535376
:1039D0004552543A204576656E74436F756E746532
:1039E00072203D3D204576656E7453756D0A00006A
:1039F000310100200A4153534552543A2051756514
:103A00007565436F756E746572203D3D2051756517
:103A1000756553756D0A00000C000020893600089A
:103A20003801002080110020741100200A415353F6
:103A30004552543A20496E746572727570744E65C1
:103A40007374696E67203D3D20300A0001EB8005EC
:103A50000020E8606860C5F80880287C20F0040039
:103A60002874287C30B90120B840364909780843C9
:103A70003449087034480088401E0004000C324964
:103A8000088000D162B6FFF784FD0120BDE8F08117
:103A90007468608A218A88420ADB2B480088401EAD
:103AA0000004000C2849088000D162B60020EDE730
:103AB000A168081DA060C1F80080608A401C608277
:103AC000D4E90110884201D12068A0601E48008816
:103AD000401E0004000C1C49088000D162B6012081
:103AE000D4E710B50446E4B172B617480088401C0C
:103AF0001549088015480178012088401149097846
:103B000081431048017012480068C4600E48008864
:103B1000401E0004000C0C49088000D162B6FFF77B
:103B200038FD10BD0B480C49C8650C490A480166B0
:103B30000B4941660B4981660B49C1660B49016718
:103B4000704700002E0100200400002033010020F7
:103B500038010020033700080C00002073370008EC
:103B6000A9370008FF3700081D390008E33A0008AC
:103B70004FF0000484F30988164C4FF001052570BE
:103B8000154C4FF08055256062B6FEE730B4124CFC
:103B90004FF08055256030BC704772B6EFF3098056
:103BA00028B1203880E8F00F0C49096808600C48FB
:103BB0000C490A78027009480B490A6802601068CB
:103BC00090E8F00F203080F309884EF0040E62B6C2
:103BD000704700003201002004ED00E038010020B1
:103BE00033010020340100203C01002010B50446C0
:103BF000206828B920224021FE4801F057F804E04F
:103C00004022FC48216801F03FF810BD2DE9F04149
:103C10000646706808B9BDE8F081706890F80080C9
:103C200000241EE0002518E07068401C475D052F49
:103C300002DBF1A001F01EFBC4F10400B84205DC78
:103C4000EC4800EB041000F8058004E02020E9496E
:103C500001EB04114855681CC5B2102DE4DB601C53
:103C6000C4B2042CDEDB00BFD5E72DE9FE4F83464E
:103C7000DBF8086034787578BFE2307B06285ED2C6
:103C8000DFE800F003125E9ECAFE30690068029011
:103C90000121029801EAD070012802D10020019090
:103CA00001E00120019000BF306910B9D8A001F0F7
:103CB000E1FA306900680290019818B90298C0438F
:103CC000401C02907068029908440290002706E0A8
:103CD0000A210298B0FBF1F00290781CC7B2B078CC
:103CE000B842F5DC029820B93020C24901EB051139
:103CF000085518E00A210298B0FBF1F201FB120905
:103D00000298B0FBF1F00290029810B9B9F1000FDF
:103D100006D04846FCF733FEB64901EB05110855BD
:103D20000CB1601EC4B202980028E3D1019820B9FA
:103D30002D20B04901EB051108550120019058E2F2
:103D4000306910B9B2A001F095FA306900680290AC
:103D5000B1780298C8400290B068C7B2AFB10EE027
:103D6000029901F00F00FCF70AFEA24901EB0511D0
:103D700008550298000902900CB1601EC4B23800C8
:103D8000A7F10101CFB2EBD119E0029820B93020A0
:103D9000984901EB051108550EE0029901F00F005A
:103DA000FCF7EDFD934901EB051108550298000958
:103DB00002900CB1601EC4B202980028EDD118E246
:103DC000306910B992A001F055FA3069006802908C
:103DD0007069029950F821A0504600F07AFFC7B2EE
:103DE000707B012807D1BC4202DC94A001F042FAAA
:103DF000E01B401CC4B209E01AF8010B7D4901EB3D
:103E0000051108550F2C01DA601CC4B23800A7F167
:103E10000101CFB2F0D1ECE1306910B97CA001F022
:103E200029FA3069006802909DF80870202F02DBA3
:103E300086A001F01FFA0A2097FBF0F100FB117039
:103E4000C0B20090FCF79BFD6A4901EB05110855D3
:103E5000002C02DC82A001F00DFA601EC4B20A2020
:103E600097FBF0F0C0B20090FCF789FD614901EBCF
:103E700005110855002C02DC79A001F0FBF900E0E7
:103E800076E0601EC4B22D205A4901EB0511085599
:103E9000002C02DC72A001F0EDF9601EC4B29DF8A6
:103EA00009700D2F02DB72A001F0E4F90A2097FBE4
:103EB000F0F100FB1170C0B20090FCF760FD4D49BD
:103EC00001EB05110855002C02DC65A001F0D2F9C8
:103ED000601EC4B20A2097FBF0F0C0B20090FCF75D
:103EE0004EFD444901EB05110855002C02DC5CA095
:103EF00001F0C0F9601EC4B22D203E4901EB05114E
:103F00000855002C02DC56A001F0B4F9601EC4B2C2
:103F10000298000C029040F634010298884202D3C5
:103F200058A001F0A7F9029820B93020314901EBDF
:103F30000511085518E00A210298B0FBF1F201FBC7
:103F400012090298B0FBF1F00290029810B9B9F191
:103F5000000F06D04846FCF712FD264901EB05117B
:103F600008550CB1601EC4B202980028E3D140E1AC
:103F7000306910B926A001F07DF9D6F8108098F8C4
:103F800000703C2F02DB45A001F074F90A2097FB7A
:103F9000F0F100FB1170C0B20090FCF7F0FC154985
:103FA00001EB05110855002C02DC2DA001F062F98F
:103FB000601EC4B20A2097FBF0F0C0B20090FCF77C
:103FC000DEFC0C4901EB05110855002C02DC24A095
:103FD00001F050F9601EC4B23A20064901EB051108
:103FE0000855002C02DC1EA001F044F9601EC4B28A
:103FF0005EE00000941100200A4153534552543AA8
:1040000020636F6C756D6E203C20350A0000000047
:104010000A4153534552543A206C6162656C506FAB
:10402000696E7465722D3E44617461506F696E747F
:10403000657220213D206E756C6C0A000A41535355
:104040004552543A2078203E20690A000A415353D1
:104050004552543A2069203C2033320A00000000C7
:104060000A4153534552543A2078203E20300A00EA
:104070000A4153534552543A2069203C2031330AB7
:10408000000000000A4153534552543A20646174C1
:1040900061203C20323130300A0000000A41535385
:1040A0004552543A2069203C2036300A0000000076
:1040B00098F801703C2F03DBAFF2200001F0DAF832
:1040C0000A2097FBF0F100FB1170C0B20090FCF7E2
:1040D00056FCFE4901EB05110855002C03DCAFF23C
:1040E000800001F0C7F8601EC4B20A2097FBF0F010
:1040F000C0B20090FCF743FCF44901EB05110855F0
:10410000002C03DCAFF2A80001F0B4F8601EC4B2CA
:104110003A20EE4901EB05110855002C03DCAFF203
:10412000C00001F0A7F8601EC4B298F80270182F02
:1041300002DBE7A001F09EF80A2097FBF0F100FBFC
:104140001170C0B20090FCF71AFCE04901EB0511B8
:104150000855002C03DCAFF2F80001F08BF8601E6C
:10416000C4B20A2097FBF0F0C0B20090FCF707FC45
:10417000D64901EB05110855002C03DCAFF22010E5
:1041800001F078F8601EC4B23A20D04901EB051165
:104190000855002C03DCAFF2381001F06BF8601EFC
:1041A000C4B2D8F804000290029820B93020C74960
:1041B00001EB0511085518E00A210298B0FBF1F255
:1041C00001FB12090298B0FBF1F00290029810B9BD
:1041D000B9F1000F06D04846FCF7D1FBBB4901EB13
:1041E000051108550CB1601EC4B202980028E3D135
:1041F00000BF00BFB66934787578002E7FF43DADFE
:10420000BDE8FE8F2DE9FE4F8246DAF80C502C787F
:104210006E78A9E2DAF81000296988420CD1B14819
:1042200001780078401CAF4A107011F0040F03D0E1
:10423000AD6A2C786E7897E2287B06285ED2DFE89C
:1042400000F003125E9ECBFD2869006802900121F8
:10425000029801EAD070012802D10020019001E00B
:104260000120019000BF286910B99FA001F002F859
:10427000286900680290019818B90298C043401C50
:1042800002906868029908440290002706E00A211B
:104290000298B0FBF1F00290781CC7B2A878B8423F
:1042A000F5DC029820B93020884901EB0611085549
:1042B00018E00A210298B0FBF1F201FB1209029802
:1042C000B0FBF1F00290029810B9B9F1000F06D0DE
:1042D0004846FCF754FB7D4901EB061108550CB12B
:1042E000601EC4B202980028E3D1019820B92D20A5
:1042F000764901EB06110855012001902FE228694B
:1043000010B979A000F0B6FF286900680290A9787A
:104310000298C8400290A868C7B2AFB10EE00299F7
:1043200001F00F00FCF72BFB684901EB0611085563
:104330000298000902900CB1601EC4B23800A7F1C7
:104340000101CFB2EBD119E0029820B930205F49CA
:1043500001EB061108550EE0029901F00F00FCF781
:104360000EFB5A4901EB061108550298000902900C
:104370000CB1601EC4B202980028EDD1EFE12869AB
:1043800010B959A000F076FF286900680290686AA9
:10439000029950F821B0584600F09BFCC7B2687BE8
:1043A000012808D1BC4203DCAFF2703000F062FF9C
:1043B000E01B401CC4B209E01BF8010B434901EBB0
:1043C000061108550F2C01DA601CC4B23800A7F1A1
:1043D0000101CFB2F0D1C2E1286910B942A000F0CA
:1043E00049FF2869006802909DF80870202F03DBC0
:1043F000AFF2A83000F03EFF0A2097FBF0F100FB7F
:104400001170C0B20090FCF7BAFA304901EB061106
:104410000855002C03DCAFF2B83000F02BFF601E13
:10442000C4B20A2097FBF0F0C0B20090FCF7A7FAE4
:10443000264901EB06110855002C00E0A8E003DC3A
:10444000AFF2E43000F016FF601EC4B22D201F4909
:1044500001EB06110855002C03DCAFF2FC3000F034
:1044600009FF601EC4B29DF809700D2F03DBAFF287
:10447000004000F0FFFE0A2097FBF0F100FB1170F6
:10448000C0B20090FCF77BFA104901EB0611085509
:10449000002C03DCAFF2384000F0ECFE601EC4B22A
:1044A0000A2097FBF0F0C0B20090FCF768FA0749C9
:1044B00001EB06110855002C03DCAFF25C4000F064
:1044C000D9FE601EC4B22D20004925E094110020C1
:1044D0000A4153534552543A2069203C2032340A51
:1044E00000000000400100200A4153534552543A55
:1044F0002074657874426F78506F696E7465722DA0
:104500003E44617461506F696E74657220213D2074
:104510006E756C6C0A00000001EB06110855002C4A
:1045200003DCAFF2C44000F0A5FE601EC4B20298E6
:10453000000C029040F634010298884203D3AFF297
:10454000BC4000F097FE029820B93020F84901EBFA
:104550000611085518E00A210298B0FBF1F201FBA0
:1045600012090298B0FBF1F00290029810B9B9F16B
:10457000000F06D04846FCF702FAED4901EB0611A0
:1045800008550CB1601EC4B202980028E3D1E6E0E1
:10459000286918B9AFF2B00000F06CFED5F81080B1
:1045A00098F800703C2F03DBAFF2105000F062FE71
:1045B0000A2097FBF0F100FB1170C0B20090FCF7ED
:1045C000DEF9DB4901EB06110855002C03DCAFF2E4
:1045D000705000F04FFE601EC4B20A2097FBF0F04E
:1045E000C0B20090FCF7CBF9D14901EB0611085598
:1045F000002C03DCAFF2985000F03CFE601EC4B209
:104600003A20CB4901EB06110855002C03DCAFF230
:10461000B05000F02FFE601EC4B298F801703C2F1D
:1046200003DBAFF2885000F025FE0A2197FBF1F082
:1046300001FB1070C0B20090FCF7A1F9BC4901EB7E
:1046400006110855002C03DCAFF2EC5000F012FE0E
:10465000601EC4B20A2097FBF0F0C0B20090FCF7D5
:104660008EF9B34901EB06110855002C03DCAFF2BB
:10467000106000F0FFFD601EC4B23A20AC4901EBAF
:1046800006110855002C03DCAFF22C6000F0F2FD9F
:10469000601EC4B298F80270182F03DBAFF2D0107E
:1046A00000F0E8FD0A2097FBF0F100FB1170C0B2AA
:1046B0000090FCF764F99E4901EB06110855002CA7
:1046C00003DCAFF2646000F0D5FD601EC4B20A20C6
:1046D00097FBF0F0C0B20090FCF751F9944901EB60
:1046E00006110855002C03DCAFF28C6000F0C2FD0F
:1046F000601EC4B23A208E4901EB06110855002C09
:1047000003DCAFF2A46000F0B5FD601EC4B2D8F8BF
:1047100004000290029820B93020854901EB06116F
:10472000085518E00A210298B0FBF1F201FB1209CA
:104730000298B0FBF1F00290029810B9B9F1000FA5
:1047400006D04846FCF71BF9794901EB06110855DC
:104750000CB1601EC4B202980028E3D100BF00BFB4
:10476000AD6A2C786E7800BF002D7FF453ADBDE8A4
:10477000FE8F2DE9F0414FF00008002424E00027CF
:10478000002515E06B4800EB0410405D684901EB23
:104790000411495D884209D0654800EB0410405D72
:1047A000644901EB041148550127B846681CC5B29D
:1047B000102DE7DB37B15F4800EB04115E4842691A
:1047C00020469047601CC4B2042CD8DBB8F1010F1E
:1047D0001DD15948416A02208847002411E05548FC
:1047E000061955481021826A304690475248416A5E
:1047F0000D2088475048416A0A20884704F110007C
:10480000C4B2402CEBDB4C48416A03208847BDE82A
:10481000F08100220A618A704A608A604A61826877
:104820008A618160704700220A614A618A61CA61B7
:104830000A628A704A608A604A62C2688A62C1609B
:1048400070470021016041608160C1600161704773
:1048500010B53A4B1B68D86800B910BD374B1B68C0
:104860001B6943B901E00169806A0028FBD1334B21
:104870001B681961F1E70269304B1B681B699342A1
:1048800004D100232D4C24682361E6E70CE02B4B78
:104890001B681B690469A34201D0016903E0274B2F
:1048A0001B681961D9E7806A0028F0D100BFD4E7FE
:1048B0002DE9F04F89B0814620480068C4681F4840
:1048C0000068D0F81080B8F1000F02D109B0BDE83F
:1048D000F08F04E02069404500D102E0A46A002C7A
:1048E000F8D100BF14B916A000F0C4FC207B0190E1
:1048F000019806287BD2DFE800F003626364C6F308
:104900002069056860690890D4F818A0D4F81CB034
:10491000206A0790B9F1000F28D0B9F1040F38D000
:10492000B9F1300F2BD0B9F1340F44D13AE0000087
:1049300094110020D41100200C000020440100201C
:104940000A4153534552543A2074657874426F7843
:10495000506F696E74657220213D2028546578740B
:10496000426F78202A29300A0000000005EB0B0175
:104970000898814201DD089D00E05D441BE0079836
:1049800029180898814201DD089D01E00798054437
:1049900011E0A5EB0B00504501DA554601E0A5EB0F
:1049A0000B0508E00798281A504501DA554601E042
:1049B00007982D1A00BF00BFC8F800501DE100BFC6
:1049C00000BF20690068069060690590A0690490A6
:1049D000E669276AB9F1000F0AD0B9F1040F2FD0A8
:1049E000B9F1300F18D0B9F1340F47D137E003E1F6
:1049F000069881190598814207D80698304406998F
:104A0000884202D30698801902D30598069002E0E6
:104A100006983044069031E00698C1190598814205
:104A200007D8069838440699884202D30698C019D8
:104A300002D30598069002E00698384406901DE0DF
:104A40000698811B0498814202D30698B04202D294
:104A50000498069002E00698801B06900EE00698E7
:104A6000C11B0498814202D30698B84202D204982E
:104A7000069002E00698C01B069000BF00BF069893
:104A8000C8F80000B9E0206900680690B9F1050F88
:104A900035D009DCB9F1000F0DD0B9F1010F18D0F4
:104AA000B9F1040F32D11CE0B9F1300F0AD0B9F1DD
:104AB000340F2BD11CE09DF81800401CC0B28DF8BB
:104AC000180023E09DF81900401CC0B28DF81900B1
:104AD0001CE0BDF81A00401C80B2ADF81A0015E0C9
:104AE00019E09DF81800401EC0B28DF818000DE0C6
:104AF0009DF81900401EC0B28DF8190006E0BDF8FF
:104B00001A00401E80B2ADF81A0000BF00BF069820
:104B1000C8F8000071E0216903C9CDE90201B9F1CB
:104B2000300F22D00CDCB9F1000F13D0B9F1010F16
:104B300026D0B9F1040F32D0B9F1050F56D144E0B7
:104B4000B9F1310F27D0B9F1340F33D0B9F1350FA6
:104B50004CD145E09DF808003B2805DA9DF8080097
:104B6000401CC0B28DF8080040E09DF809003B28C9
:104B700005DA9DF80900401CC0B28DF8090035E047
:104B80009DF80A00172805DA9DF80A00401CC0B2FB
:104B90008DF80A002AE00398401C039026E09DF857
:104BA0000800002805DD9DF80800401EC0B28DF801
:104BB00008001BE09DF80900002805DD9DF80900AC
:104BC000401EC0B28DF8090010E09DF80A000028D0
:104BD00005DD9DF80A00401EC0B28DF80A0005E010
:104BE000039810B10398401E039000BF00BFDDE999
:104BF0000201C8E9000100E000BF00BF00BF65E698
:104C000010B50446164804602046FEF7EFFF204624
:104C1000FEF7FCFF2046FFF728F82046FFF7F2FAE0
:104C2000FFF7A7FD10BD002006E020210D4A11541A
:104C30000D4A1154411CC8B24028F6DB0B490C4AFE
:104C400051670C4A0A498A670B4ACA670B4AC1F87E
:104C500080200B4AC1F884200A4AC1F88820704796
:104C60004401002094110020D4110020014C0008C0
:104C70000C0000201348000827480008434800089B
:104C800051480008B148000840EA01039B0703D0DF
:104C900009E008C9121F08C0042AFAD203E011F87B
:104CA000013B00F8013B521EF9D27047D2B201E03D
:104CB00000F8012B491EFBD270470022F6E710B521
:104CC00004460846114602462046FFF7EFFF2046FD
:104CD00010BD0146002000E0401C0A5C002AFBD108
:104CE000704730B50B46014600202022012409E020
:104CF00021FA02F59D4205D303FA02F5491B04FA95
:104D000002F52844151EA2F10102F1DC30BD2DE9A7
:104D1000F05F0546002092469B468846064681463F
:104D200040241BE0284641464746224600F0F3F95E
:104D300052465B46801A994110D3104619462246C6
:104D400000F0DAF92D1A67EB01084F4622460120E0
:104D5000002100F0D1F917EB00094E41201EA4F10B
:104D60000104DFDC484631462A464346BDE8F09F51
:104D70002DE9FE4F074681EA0300C00F0E46019061
:104D800021F0004123F00044B81AA14105D2384671
:104D9000314617461E460B46024623F0004010439C
:104DA00004D13846314603B0BDE8F08F350DC5F368
:104DB0000A00C3F30A510290401A0090402868DAB2
:104DC000C3F3130040F4801B0198924620B10023E6
:104DD000D2EB030A63EB0B0B00985946C0F140027B
:104DE000504600F089F980460C4650465946009AD4
:104DF00000F0A1F9C0197141EF1785EA11533B4347
:104E000040D0019A52B3009A012A11DC0022801A84
:104E10004FF0004361EB055103EA05538018CDE9DB
:104E2000002341F580114246234600F0A3F9BAE77A
:104E30002E050025401B61EB0601401941F580124B
:104E4000001852412818A6F5001343EB020140EA6E
:104E5000D470294318EB0808644113E064084FEA52
:104E600038084FF0000244EAC0744FEA0553801A34
:104E700061EB0301801841F5801149084FEA3000C9
:104E8000801859414246234603B0BDE8F04F00F078
:104E900064B90198012240000023D0EB020263EBC9
:104EA000E07301984FEAE074381A66EB0401EBE70F
:104EB00083F000435CE781F0004159E72DE9FE4FA4
:104EC00081EA030421F0004504F0004423F000418E
:104ED0004FF0000A009450EA050302D052EA0103A1
:104EE00004D10020014603B0BDE8F08FC1F30A539E
:104EF000C5F30A541C44A0FB02B3C5F3130545F4E3
:104F0000801CC1F3130141F480180CFB023300FB39
:104F1000083EA4F2F334810A930A41EA8C5143EA31
:104F200088530194A1FB03474FEA9C2505FB0373BB
:104F30004FEA982601FB06373D05260545EA14355C
:104F4000BBEB06016EEB0503850E920E45EA8C1550
:104F500042EA8812A5FB0206261E67EB00070C0D2D
:104F600044EA0334A41947EB1350C1F313064FF07E
:104F7000000319464FEA033343EA165343EA040396
:104F8000019CE5FB0201A4F10C040294009C4FEA91
:104F90000632CDE900A400F0EDF8A4E72DE9F04DCC
:104FA00081EA030404F0004B21F0004714464FF05F
:104FB000000A23F0004150EA070220D054EA01021F
:104FC0001DD0C1F30A550246C1F31300C7F30A56B8
:104FD000C7F3130340F4801143F48013A6EB0508D4
:104FE000101BD64608F2FD3873EB010002D308F11E
:104FF000010801E092185B41B8F1000F03DA0020CC
:105000000146BDE8F08D00204FF4801506460746A6
:105010000EE0B2EB040C73EB010C04D3121B06433D
:1050200063EB01032F436D084FEA300092185B4198
:1050300050EA050CEDD152EA030012D082EA0400D6
:1050400083EA0105284303D100224FF0004308E022
:10505000101B8B4102D20122002302E06FF00102FB
:1050600053101AEB060047EB085110EB0A0041EB16
:105070000B01BDE8F04D00F070B8C1F30A52C1F366
:10508000130140F2FF3341F480119A4202DA00200A
:105090000146704740F233439A42A2F2334202DCA7
:1050A000524200F038B800F027B8000030B50029AF
:1050B00004DB4FF00044404264EB0101002B04DBB1
:1050C0004FF00044524264EB0303994208BF904200
:1050D00030BD0000064C074D06E0E06840F00103DB
:1050E00094E8070098471034AC42F6D3FBF702F877
:1050F000C85F0008E85F0008202A04DB203A00FAB5
:1051000002F1002070479140C2F1200320FA03F31E
:10511000194390407047202A04DB203A21FA02F01C
:105120000021704721FA02F3D040C2F120029140E1
:10513000084319467047202A06DBCB17203A41FA6C
:1051400002F043EAE071704741FA02F3D040C2F145
:105150002002914008431946704710B5002B08DA29
:10516000401C41F1000192185B411A4301D120F02B
:10517000010010BD2DE9F04D92469B4611B1B1FAE8
:1051800081F202E0B0FA80F220329046FFF7B4FFDD
:1051900006460F4640EA0A0041EA0B0152465B46CA
:1051A000084303D130463946BDE8F08D194652EA2E
:1051B000010015D0C8F140025046FFF7ACFF04468D
:1051C0000D46504659464246FFF796FF084301D028
:1051D000012000E00020044345EAE07526432F4308
:1051E0000A984FEAD625A0EB08000A304FEA46534A
:1051F0004FF0000245EA47554FEAD72402D5002078
:105200000146D1E7010550196141DDE90845001962
:105210006941BDE8F04DA0E770B501EB020410F85C
:10522000015B15F0070301D110F8013B2A1106D1EB
:1052300010F8012B03E010F8016B01F8016B5B1E05
:10524000F9D12B0705D40023521E0FD401F8013BDE
:10525000FAE710F8013B02F10202A1EB030303E0BD
:1052600013F8015B01F8015B521EF9D5A142D6D3B8
:10527000002070BD0FB4054B10B503A9044A029875
:1052800000F0D4F810BC5DF814FB0000D71700083C
:105290004801002037B508461146054B6A4600F024
:1052A0002DFA04466946002000F0D5FD20463EBD9B
:1052B000575E000802E008C8121F08C1002AFAD190
:1052C00070477047002001E001C1121F002AFBD186
:1052D000704700002DE9FF5FDDE90210020DDDF8E7
:1052E00038B001430FD10F9801244BA3012807D0F8
:1052F00000980F9AC0E90031C0E90242BDE8FF9F63
:105300006FEA0B01F4E7A2F2FF3244F61050424379
:1053100015140F9801280ED0A5EB0B00401C4FF080
:1053200000043E4EDFF8F890B0F1000AA04605DA1E
:10533000CAF1000717E0CBF10000F0E7074612E0E2
:10534000F80707D02246334640464946FFF7B6FDE8
:10535000804689462246334610461946FFF7AEFD81
:1053600004460E467F10002FEAD1DDE90201BAF1B2
:10537000000F42464B4602DAFFF7A0FD01E0FFF7BF
:105380000DFE04460E460022264BFFF78FFE03D883
:105390004FF0FF30014607E00022234B2046314604
:1053A000FFF7E6FCFFF769FE102409E0002C0ADB9A
:1053B0000A220023FFF7ABFC019B30321A55641E12
:1053C00050EA0102F2D1641C019AC4F111031444A1
:1053D0000F9A012A09D00122084301D15B450FDD54
:1053E0004FF0000205F101050DE0084303D1A3EBE6
:1053F0000B056D1E09E000204FF0110B0F9088E7A0
:1054000001DA00226D1E002A83D000980F99C0E9AE
:105410000231C0E9004571E730000000000024407F
:105420000000F03F0000F0430000E03F2DE9FF4F97
:105430008DB004469B460F46002641E1252801D049
:105440000F9963E00025641CA14AA8460121237836
:10545000203B01FA03F0104202D00543641CF6E73A
:1054600020782E2817D114F8010F45F004052A28BA
:105470000ED06FF02F022078A0F1300109290AD850
:1054800008EB880102EB410100EB0108641CF2E724
:1054900057F8048B641C20786C280DD004DC4C2851
:1054A00012D06A2811D104E074280DD07A280CD1CA
:1054B0000AE045F4001507E0617845F48015814263
:1054C00002D1641C05F58015641C94F800C0BCF181
:1054D000690F4DD00CDCBCF1000F6ED0BCF1580F41
:1054E0006FD0BCF1630F16D0BCF1640F0CD13FE05C
:1054F000BCF1700F6AD0BCF1730F15D0BCF1750F01
:105500005DD0BCF1780F5CD00F9960465A46904749
:1055100006F10106D3E001CF8DF8000000208DF8E0
:105520000100E946012003E057F8049B4FF0FF30EB
:1055300069074FF0000501D40AE06D1C45450DDAFE
:105540008542FADB19F805100029F6D106E06D1C3A
:105550008542FCDB19F805100029F8D12E4404E03F
:1055600019F8010B5A460F9990476D1EF8D2A6E024
:105570000A200021CDE90801C5F3025002280AD013
:1055800001CFC11700290DDA0023D0EB030063EB34
:1055900001012D2209E007F1070727F00707F7E8C7
:1055A0000201EFE72A0504D52B228DF828200122DD
:1055B00030E0EA072ED02022F7E785E001E00A205C
:1055C00000E010200021CDE9080107E010200021B3
:1055D00045F00405CDE908014FF00808C5F3025075
:1055E00002281CD001CF00214FF0000A2A0712D553
:1055F000BCF1700F19D0DDE9083283F010031343BA
:1056000009D150EA010206D030228DF828208DF809
:1056100029C002229246BCF1580F10D00AE0FF1DAB
:1056200027F00707F7E80201DEE740228DF828207F
:105630004FF0010A27A20DF120090B9209E02AA2DE
:10564000F9E7DDE90823FFF762FB0B9B9B5C09F898
:10565000013D50EA0102F4D1ADEB090000F1200058
:105660000890680701D44FF001080899884502DDC9
:10567000A8EB010000E000208046002506E00AA813
:105680005A46405D0F999047761C6D1C5545F6DBD8
:1056900004E030205A460F999047761CB8F100017B
:1056A000A8F10108F5DC05E019F8010B5A460F993D
:1056B0009047761C0899481E08900029F4DC641C69
:1056C000207800287FF4BAAE11B03046BDE8F08FE4
:1056D00009280100303132333435363738396162C8
:1056E000636465660000000030313233343536378C
:1056F0003839414243444546000000002DE9FF4F40
:1057000095B006469A468946002521E2252801D013
:105710001799A6E00024F9492746761C4FF00108A6
:1057200003943278203A08FA02F0084202D0044387
:10573000761CF6E730782A2811D06FF02F023078E7
:10574000A0F13001092916D8039944F0020401EBB5
:10575000810102EB41010844761C0390EFE759F800
:10576000041B0391002903DA484244F400540390D7
:1057700044F00204761C30782E2816D116F8010F5A
:1057800044F004042A280DD06FF02F013078A0F1E6
:105790003002092A09D807EB870201EB4202871879
:1057A000761CF3E759F8047B761C30786C280FD010
:1057B00006DC4C2817D068280DD06A2814D104E0E4
:1057C000742810D07A280FD10DE044F400140AE0B8
:1057D00044F4801401E044F440147178814202D111
:1057E000761C04F58014761C96F800C0BCF1660F98
:1057F00010D01ADCBCF1580F70D00CDCBCF1000FDB
:105800006DD0BCF1450FF3D0BCF1460FF0D0BCF128
:10581000470F24D1A4E1BCF1630F40D0BCF1640F69
:1058200074D0BCF1650F1AD19AE1BCF1700F6ED043
:105830000CDCBCF1670FEDD0BCF1690F75D0BCF189
:105840006E0F12D0BCF16F0F09D1B3E0BCF1730F32
:105850002FD0BCF1750F76D0BCF1780F74D01799AA
:105860006046524690476D1C70E1C4F30250022816
:1058700009D003280DD0D9F8001004280DD00D60F0
:1058800009F1040962E1D9F80010EA17C1E90052F0
:10589000F6E7D9F800100D80F2E70D70F0E759F83F
:1058A000041B8DF8001000208DF80100EB4601204C
:1058B00003E059F804BB4FF0FF3061074FF00001DF
:1058C00002D40FE008F101018846B94211DA80459F
:1058D000F8DB1BF808100029F4D10AE060E03BE196
:1058E00008F1010188468142FADB1BF80810002903
:1058F000F6D103985346A0EB080721463846179A7D
:1059000000F091FA284400EB080506E00DE049E0BC
:105910001BF8010B524617999047B8F10108F7D2CE
:10592000534621463846179A0DE10A21C4F3025224
:105930004FF0000B0091022A07D059F8040BC11751
:10594000032A0AD00BE024E025E009F1070020F04B
:105950000702F2E80201914605E000B2C117042AED
:1059600001D140B2C117002906DA0A46002140429F
:1059700061EB02012D2202E0220504D52B228DF8D5
:105980000420012203E0E20701D02022F7E790463D
:1059900054E00A2100E010214FF0000B00910DE0CF
:1059A000102008E010204FF0000B44F004040827FA
:1059B000009003E008204FF0000B0090C4F3025267
:1059C000022A05D059F8040B0021032A08D009E067
:1059D00009F1070020F00702F2E80201914605E014
:1059E00080B20021042A01D1C0B200214FF000088A
:1059F000220723D5BCF1700F28D0009B83F0100341
:105A000053EA0B0309D150EA010206D030228DF887
:105A100004208DF805C002229046009B83F0080305
:105A200053EA0B030AD150EA010201D1620705D5FE
:105A300030228DF804204FF001087F1EBCF1580F72
:105A400009D02FA20C920CAA029211E040228DF8EC
:105A500004200122E0E72FA2F4E75B46009AFFF75B
:105A600056F90C9B9B5C029AA2F101020292137000
:105A700050EA0102F1D1029804A9A1EB000000F163
:105A8000200B600702D524F4803400E001275F4535
:105A900002DDA7EB0B0000E0002000EB0B01009003
:105AA00003984144A0EB01000390E00306D4534661
:105AB0002146179A039800F0B6F90544002706E03E
:105AC00001A85246C05D179990476D1C7F1C474541
:105AD000F6DBE0030CD553462146179A039800F0F5
